:100000000C9450020C9488020C9488020C94880280
:100010000C9488020C9488020C9488020C94880238
:100020000C9488020C9488020C94231C0C94FB1CE6
:100030000C94D81B0C9488020C9488020C948802AF
:100040000C9488020C9488020C9488020C94880208
:100050000C9488020C94FF1B0C9488020C94880268
:100060000C9488020C9488020C9488020C948802E8
:100070000C9488020C9488020C9488020C948802D8
:100080000C9488020C9488020C9488020C948802C8
:100090000C9488020C9488020C9488020C948802B8
:1000A0000C9488020C9488020C94880205010902C1
:1000B000A10185020901A1000509190129081500FE
:1000C0002501950875018102050109300931158165
:1000D000257F95027508810609381581257F9501D0
:1000E00075088106050C0A38021581257F95017572
:1000F000088106C0C005010980A101850319012AF4
:10010000B700150126B700950175108100C0050CD8
:100110000901A101850419012AA002150126A002E6
:10012000950175108100C005010906A1018506052C
:100130000719E029E71500250195087501810205D9
:1001400007190029EF1500250195F07501810205B9
:10015000081901290595057501910295017503910D
:1001600001C00660FF0961A1010962150026FF00B8
:100170009520750881020963150026FF00952075FA
:10018000089102C005010906A101050719E029E748
:1001900015002501950875018102950175088101F9
:1001A0000507190029FF150026FF0095067508812F
:1001B000000508190129051500250195057501910E
:1001C00002950175039101C009025B00030100A0C3
:1001D000FA090400000103010100092111010001D5
:1001E00022440007058103080001090401000203FD
:1001F00000000009211101000122220007058203ED
:100200002000010705030320000109040200010387
:1002100000000009211101000122B6000705840336
:1002200020000112010002000000086532050000F4
:1002300001010200011E0343006F0072006E0065A1
:10024000006C006900750073002000720065007684
:10025000003100000014035900750073006800614C
:10026000006B006F0062006F000000040309042BA4
:100270000014001A000800150017001C0018000CDC
:1002800000120013002A00E0000400160007000915
:10029000000A000B000D000E000F0033003400E1D7
:1002A000001D001B0006001900050011001000369B
:1002B0000037003800E5002900E000E300E20077A5
:1002C0007C2C002800787CE600E700E4002900018F
:1002D000001E001F00200021002200230024002512
:1002E00000260027002A0001000000000000000096
:1002F0000000005000510052004F000000000001BB
:1003000000000000000000000000000000000000ED
:1003100000000000000000010001000100010001D8
:1003200000010001000100010001000100010001C5
:10033000001E021F022002210222022302240225A3
:1003400002260227022A000100000000000000002F
:100350000000002D002E002F023002310235000176
:1003600000000000000000000000002D022E022FFF
:1003700000300031003502010001000100010001E0
:100380000001000100010001000100010001000165
:10039000000000000000000000000000000000005D
:1003A000000000000000000100000000000000004C
:1003B000000000000000000000000000000000013C
:1003C000000000000000000000000000000000002D
:1003D0000000000000000001000100010001000118
:1003E0000001000100010001000100010001000006
:1003F00000000000000000000000000000000000FD
:1004000000000000000000000000000000000000EC
:100410000000007E0F00D4FFFFFFC700000078003F
:10042000000000000000002A2B280000000000004F
:100430000000000000000000000029000000002C67
:100440001E3420212224342627252E362D37382706
:100450001E1F202122232425263333362E37381F12
:100460000405060708090A0B0C0D0E0F10111213D4
:100470001415161718191A1B1C1D2F3130232D3572
:100480000405060708090A0B0C0D0E0F10111213B4
:100490001415161718191A1B1C1D2F3130354C0056
:1004A00011241FBECFEFDAE0DEBFCDBF04B603FEDE
:1004B00018C08091960290919702A0919802B091F5
:1004C00099028730904BA740B04B59F41092960296
:1004D000109297021092980210929902E0E0F8E3CD
:1004E000099511E0A0E0B1E0E0EFFCE302C0059067
:1004F0000D92A639B107D9F722E0A6E9B1E001C013
:100500001D92A639B207E1F70E94CC170C94111E78
:100510000C94000080934F02089580935002089538
:1005200021E030E001C0220F8A95EAF78091500265
:10053000822B0E948D02089521E030E0A90102C0C3
:10054000440F551F8A95E2F7CA0180959091500299
:1005500089230E948D020895292F943090F58C30C4
:1005600080F590E03CE0239F800D911D1124282F01
:10057000277041E001C0440F2A95EAF723E09695E1
:1005800087952A95E1F7FC01EE0FFF1FE80FF91F91
:10059000E15DFD4F20E030E070E05191DF01CB01E3
:1005A000022E02C0969587950A94E2F78170819594
:1005B0008527842385278E932F5F3F4F2330310576
:1005C00061F70895292F943078F58C3068F590E024
:1005D0003CE0239F800D911D1124682F677023E05C
:1005E000969587952A95E1F7FC01EE0FFF1FE80F1E
:1005F000F91FE15DFD4F40E050E080E0219130E0E7
:10060000062E02C0369527950A94E2F7217033270B
:10061000042E01C0220F0A94EAF7822B4F5F5F4F2E
:100620004330510559F7089580E0089590915002A4
:1006300021E030E0F90101C0EE0F8A95EAF7D90117
:1006400002C0AA0FBB1F6A95E2F7EA2B01C0220F76
:100650004A95EAF7892F8E23E81305C0892F822B4C
:100660000E948D0208952095822F8923F9CF8091D1
:10067000560290915502981301C008958F5F8770BC
:10068000FACF909151028095892380935102282FAF
:10069000277021110DC0891759F09091530292FFD4
:1006A00007C08695869586950E949C0210925102FD
:1006B000089580914C0290915402892B50914D02E3
:1006C000511591F090910A01911521F090915202EB
:1006D00097FD0BC096E02AE931E040E0915048F4E4
:1006E000411110924D02852B08959EE122EA31E0DE
:1006F000F4CFF90161919F01611581F34F5FEECF56
:10070000982F909580914C02892380934C020895F4
:100710009C01803E910509F448C0D8F481339105CD
:1007200009F47DC048F48932910509F46DC08A97B7
:1007300009F47CC0C90108958933910551F18238CB
:10074000910539F1C597B1F78091520285FFF2CF3B
:1007500029C0843E910509F447C048F4823E9105C2
:1007600099F1833E9105A9F121EE30E0E3CF863E79
:10077000910509F444C0873E9105E1F6809152024B
:1007800083FD61C09091530291FF2BC024EE30E0B5
:10079000D1CF809152028370811152C08091530257
:1007A00083FFC8CF29E230E0C5CF8091520280FD9F
:1007B00033C09091530290FFBDCF23EE30E084FF11
:1007C000B9CF20E030E0B6CF8091520282FDF5CF64
:1007D000B1CF8091520282FD30C09091530290FDC2
:1007E0002FC084FFA7CFEDCF8091530281FFA2CF0E
:1007F0008091520227EE30E084FDE3CF9BCF8091C1
:10080000520283FDF7CF96CF8091520285FD1EC024
:100810008091530283FF8ECF29E330E08BCF80910C
:10082000520286FF87CF2AE230E084CF80915202C5
:1008300086FF80CF21E330E07DCF22EE30E07ACF1B
:1008400020EE30E077CF26EE30E074CF25E330E0C5
:1008500071CF9091520292FF10C041E0282F247175
:10086000243009F040E031E0282F2871283009F0C9
:1008700030E0431711F02CE0822793FF10C041E0D5
:10088000282F2471243109F040E031E0282F28710D
:10089000283109F030E0431711F02CE08227309125
:1008A000530230FF10C051E0282F2171213009F090
:1008B00050E041E0282F2871283009F040E054171B
:1008C00011F029E0822731FF10C041E0282F21716B
:1008D000213109F040E031E0282F2871283109F05A
:1008E00030E0431711F029E0822794FD877E0895B8
:1008F0001F93CF93DF930E948803EC01811522E5BB
:10090000920708F055C0811540E5940708F0D1C062
:10091000803E910520F58D3C910508F0A4C0883AF1
:10092000910570F4853A910508F09AC081309105DF
:10093000D1F10497813A9105B0F1C0E0D0E033C025
:10094000885A91094B97C8F7C85AD0E0CC0FDD1FE1
:10095000C65DDE4F0990D881C02DD46424C08115B6
:1009600050E49507C0F4C11580E2D80708F0B7C07D
:10097000C83ED105C0F0CE019A9581159F41E8F699
:100980008D2F0E942904182FCE0199270E948803D9
:10099000EC01D12B08C099270E948803CC27DF7077
:1009A000C82BD92BD06ACE01DF91CF911F9108952A
:1009B000803842E59407C8F5803652E5950708F07F
:1009C0005BC0C03482E5D807D0F4C03292E5D907C5
:1009D00008F04BC08C2F8695869520E2829FC0013F
:1009E0001124C37021E030E0A90102C0440F551F5B
:1009F000CA95E2F7EA01C82BD92BDD68D4CF8C2F3A
:100A000086958695877050E2859FC0011124C3703A
:100A100021E030E0A90102C0440F551FCA95E2F75A
:100A2000EA01C82BD92BDC68BECF803C52E5950784
:100A300058F48F71C03AD245A0F590E0982F8827DE
:100A4000EC01C46FD06AAFCF805C9245809708F00C
:100A500074CFDC2FCC27CC27DF71C06FD06AA3CF37
:100A6000A497D064A0CFD0659ECFCF71D0E0DC2F0B
:100A7000CC27C16FD06A97CF86958695877020E284
:100A8000829FC0011124C37021E030E0A90102C09F
:100A9000440F551FCA95E2F7EA01C82BD92BDA6833
:100AA00082CF0E942904C82FD0E0DC2FCC27D0624F
:100AB0007ACF8F710E94290493E0CC0FDD1F9A95A5
:100AC000E1F7CC27DF70282F30E084FF04C050E12D
:100AD000859F90011124C22BD32BD06964CF8D2F19
:100AE0008F710E942904182FCE0199270E94880334
:100AF000EC01D12BDCCF80E00895F894E82FE2954B
:100B0000EF70F0E041A18F7021E030E0B90102C048
:100B1000660F771F8A95E2F7CB01962F9095942365
:100B200091A392A1892B82A378940895282F35EB65
:100B30002303C001112497FF04C080589109892F15
:100B4000089580589F4FFBCF8091430280FD14C0D1
:100B500081FD14C082FD16C080914202811581F092
:100B60008E3180F420E5829FC00111246EE170E097
:100B70000E94461D862F089584E1089588E2089515
:100B800088E0089580E508958091430280FD17C0B4
:100B900081FD17C082FD19C080914102811599F035
:100BA000883298F428E0829FC001112468E270E046
:100BB0000E94461D6115710551F0862F089562E06F
:100BC000FCCF64E0FACF61E0F8CF68E0F6CF81E0D7
:100BD0000895E0912502F0912602309729F00190C6
:100BE000F081E02D0995089580E00895A3E0B0E03C
:100BF000ECEFF5E00C94771D9C018091E001909161
:100C0000E10182179307A1F03093E1012093E00105
:100C1000E0912502F0912602309751F083E089831C
:100C20003B832A830084F185E02DCE01019609954E
:100C30002396E2E00C94931DA3E0B0E0E2E2F6E03C
:100C40000C94771D9C018091DE019091DF01821749
:100C50009307A1F03093DF012093DE01E09125029C
:100C6000F0912602309751F084E089833B832A83F8
:100C70000084F185E02DCE01019609952396E2E0EE
:100C80000C94931D90910A01911112C0AAE9B1E050
:100C9000EFEF90E02D91821751F0EF3F19F4211101
:100CA00001C0E92F9F5F9630A9F7EF3FC9F408957F
:100CB0009091520297FFEACFE82FE695E695E695E8
:100CC000803FA8F7F0E0E056FE4F877021E030E06B
:100CD00001C0220F8A95EAF78281822B82830895D0
:100CE0000E2E000CFF0BE856FE4FF8CF90910A0134
:100CF000911521F09091520297FD0CC0EAE9F1E0C4
:100D00009191891302C0DF011E9251E0E03AF5078C
:100D1000B9F70895E82FE695E695E695803FC8F780
:100D2000F0E0E056FE4F877021E030E0A90102C0FC
:100D3000440F551F8A95E2F7CA0180959281892355
:100D4000828308952FB7F8948091DA019091DB01A6
:100D5000A091DC01B091DD012FBF08950E94A20691
:100D60002091460230914702232B211521F08093D8
:100D7000F7019093F8012091480230914902232B0A
:100D8000211521F08093F5019093F601E091250261
:100D9000F0912602309749F082E080934402068069
:100DA000F781E02D84E492E00995089520914602B0
:100DB0009091490230914802611509F458C0409160
:100DC0004702242B292B232B211531F098E09093F7
:100DD000420291E090934102E3E3E80FE33150F4E3
:100DE000F0E0ED5EF14E0C945A1D0E94A405819531
:100DF000809347020E94AE0608950E94A405F8CF92
:100E00000E94A405819580934602F4CF0E94A40518
:100E1000FACF0E94C40580934802ECCF0E94C4051B
:100E20008195F9CF0E94C405819580934902E2CF54
:100E30000E94C405FACF815D990B21E030E001C02A
:100E4000220F8A95EAF780914502822B8093450212
:100E5000D1CF80914302816080934302CBCF8091B8
:100E600043028260F9CF809143028460F5CF8D3CCC
:100E700059F48091470287FF0DC010924702211557
:100E800059F41092420208C08E3C81F480914702CE
:100E900018169CF3211581F0809148029091490227
:100EA000892B8111A7CF10924102A4CF8F3C41F42E
:100EB00027FFF0CF10924602809147028115E0CFC4
:100EC000803D19F41216B4F3E5CF893D29F41316C9
:100ED0000CF710924802DECF8A3D19F437FFDACFC3
:100EE000F8CF8B3D29F497FFD5CF10924902D2CF8E
:100EF0008C3D19F41916CCF3CDCF9FE2980F9830A2
:100F000090F4815D990B41E050E0BA0102C0660F98
:100F1000771F8A95E2F7CB0180959091450289234E
:100F200080934502B7CF8D3D31F4809143028E7F8F
:100F300080934302AFCF8E3D21F4809143028D7F99
:100F4000F7CF8F3D09F0A6CF809143028B7FF0CF82
:100F50002FB7F8946091DA017091DB018091DC0188
:100F60009091DD012FBF08959C014FB7F8948091B7
:100F7000DA019091DB01A091DC01B091DD014FBF5E
:100F8000821B930B08958091D9010895FC019B0168
:100F90008091CF019091D0018617970740F0672B81
:100FA00029F48091E8008E778093E800C90140E041
:100FB000009741F4411106C08091E80082FF2FC0E4
:100FC00080E00895209102022115A9F12530A9F1B0
:100FD0002091E80023FD2DC02091E80022FDECCFF8
:100FE0002091E80020FFE4CF3091F3002091F2003F
:100FF000009719F02830310558F041E028303105CC
:1010000009F040E02091E8002E772093E800D0CF4F
:1010100041914093F10001972F5F3F4FE9CF8091BD
:101020000202811541F0853041F08091E80083FF94
:10103000C3CF81E0089582E0089583E00895809110
:10104000C90187FF13C08091E80082FF06C080912C
:10105000E8008B778093E800089580910202811167
:10106000F2CF0895809102028115D9F38091E800B2
:1010700080FFF8CF8091E8008E77ECCF2091E400DC
:101080003091E50095E6A9012091EC00822F817056
:1010900020FF06C08091E80080FF06C080E0089530
:1010A0002091E80022FD1AC080910202811589F08A
:1010B000853089F08091EB0085FD0FC02091E40020
:1010C0003091E50042175307F9F29A95E1F684E072
:1010D000089582E0089583E0089581E00895E8EDA1
:1010E000F0E080818E7F80831092E2001092DA001F
:1010F0001092E100A0EEB0E08C9181608C93808131
:101100008F77808319BCA7EDB0E08C918E7F8C9394
:1011100080818F7E80831092C8010895982F9093CC
:10112000E900891771F07091EC002091ED00509169
:10113000F00021FD09C09F5F973089F78093E90097
:101140000895762F242F50E03091EB003E7F3093AE
:10115000EB003091ED003D7F3093ED003091EB00DE
:1011600031603093EB007093EC002093ED005093CE
:10117000F0002091EE0027FDDECF0895A0E0B0E062
:10118000E4ECF8E00C94711DC8EDD0E088818F7E0E
:101190008883E7EDF0E080818160808384E082BF16
:1011A00081E08093C80188818E7F888302EE10E001
:1011B000F80110821092DA0081EEC82ED12CF601CF
:1011C000108288818F77888388818068888388816E
:1011D0008F7D888319BC109202021092C701109271
:1011E000EB011092C60190EEE92EF12CF7018081FF
:1011F0008B7F808388818160888342E060E080E02B
:101200000E948E08F60180818E7F8083F8018081A4
:1012100081608083808188608083F70180818E7FF8
:101220008083888180618883CDB7DEB7E8E00C9445
:101230008D1DE09156029091550227E0E91302C0FE
:1012400080E00895AE2FB0E02E9FF0011124E95AFE
:10125000FD4F3181361306C03081381303C035810C
:10126000341304C0FD013196E770E8CF81E00895A2
:1012700081E08093E00080E28093D8001092C90062
:101280008FE19EE40197F1F700C0000087E090EB4A
:10129000DC018093960290939702A0939802B093FA
:1012A000990288E19CE00FB6F894A89580936000BD
:1012B0000FBE90936000FFCF0F931F93CF93DF93E8
:1012C0008B01EA0190910202943059F58093E90074
:1012D0008FEF9091E80095FD06C095ED9A95F1F796
:1012E00000008A95B1F78091E80085FF1AC00E943E
:1012F0003E08811111C08091E80085FD06C08091F3
:10130000E8008E778093E800F2CFF80181918F0199
:101310008093F100219779F78091E8008E77809390
:10132000E800DF91CF911F910F910895CF93DF9344
:10133000D82FC92F48E050E0682F792F81E00E9414
:101340005C0988E0ED2FFC2FA1EDB1E001900D923A
:101350008A95E1F7DF91CF910895BC0140E250E01A
:1013600084E00E945C090895BC0146E050E084E0FE
:101370000E945C090895BC0143E050E084E00E94B3
:101380005C0908959091530292FB222720F92817B7
:1013900079F080FB92F99093530260915202709120
:1013A000530284E090E00E94EE1D82E00E9441031F
:1013B00008951F93CF93DF93962F122F632F282F1B
:1013C000292B2430C8F44C30B8F4C42FD0E0CC0F13
:1013D000DD1F28E1929FC00DD11D112490E6899F49
:1013E000C00DD11D1124CE0189960E94D01D612F00
:1013F000CE018A960E94D01DDF91CF911F91089552
:10140000AF92BF92CF92DF92FF920F931F93CF9331
:10141000DF93A12CB12C00E0650110E013C0FE01A8
:10142000259135914F2D612F802F0E94D909229649
:10143000F3948CE0F812F3CF8CE0C80ED11C1F5F40
:10144000143039F0E601CC0FDD1FC159DD4FF12C0E
:10145000E6CF0F5F80E3A80EB11C0430E9F6DF9100
:10146000CF911F910F91FF90DF90CF90BF90AF90E1
:101470000895CF93DF93C9EAD1E060E0CE010E94E6
:10148000D01D2196C11584E0D807B9F7DF91CF911F
:101490000895CF93C82F65E2811101C06FEF85E2F7
:1014A00090E00E94D01D65E0C11101C06FEF86E29F
:1014B00090E00E94D01D60E3C11101C06FEF87E290
:1014C00090E00E94D01DCF91089580E00E94490ACB
:1014D00060E088E290E00E94D01D0E94000A0E9415
:1014E000390A81E00E94490A08950F931F93CF9310
:1014F000DF93982F962B943020F54C3010F5C42FA5
:10150000D0E0CC0FDD1F28E1629FC00DD11D11245A
:1015100030E6839FC00DD11D1124CE0189960E9413
:10152000B21D082F10E0102F0027CE018A960E94CE
:10153000B21D9801282BC901DF91CF911F910F9106
:10154000089580E090E0F8CF462F672F982F972BD3
:10155000943028F44C3018F40E94750A089580E005
:1015600090E00895A0E0B0E0E8EBFAE00C94721D82
:101570007C010091500280914F02082BC3E0D0E023
:1015800010E0C8010C2E02C0959587950A94E2F7E9
:1015900080FD09C02197A8F7D12C8D2DCDB7DEB7DE
:1015A000E7E00C948E1DDC2EB7018C2F0E94A40A5C
:1015B0000E947804019771F3F0CF0F931F93CF939C
:1015C000FC01858100811181811591F0611581F007
:1015D000C8010E94B20AC82F682FC8010E94AC023D
:1015E000B8018C2F0E94A40ACF911F910F910895EA
:1015F000C8010E94E202C82FF3CFCF93DF93D82F08
:10160000C92F0E94B20A6D2F7C2F0E94A40A0E944B
:101610007804DF91CF910895FC0184818115A1F0B8
:10162000808191810E94FD0A282F92959F709630AB
:1016300099F060F4925F9F70923030F4203FB1F0E7
:1016400038F481E0283E38F080E008959A5FF3CFC7
:1016500081E0243FC9F7089591E0213F09F090E02F
:1016600081E0283E08F080E0892B089581E008950C
:1016700085E290E00E94B21D853289F486E290E016
:101680000E94B21D853059F487E290E00E94B21D9D
:1016900091E0803309F090E0892F8170089580E017
:1016A000FCCF80910A01811559F18091520287FF88
:1016B00027C00E9459038093A10140E250E065E0F9
:1016C00072E080EA91E00E94041E892BC1F080E262
:1016D000E0EAF1E0A5E0B2E001900D928A95E1F731
:1016E000E0912502F0912602309749F086E0809340
:1016F000A0010480F581E02D80EA91E0099508952C
:101700000E9459038093980148E050E067E272E03C
:1017100088E991E00E94041E892B89F388E0E8E9BA
:10172000F1E0A7E2B2E001900D928A95E1F7E09135
:101730002502F0912602309711F30280F381E02D0B
:1017400088E991E0DBCFCF93C82F8115D9F08CEFDA
:101750008C0F813AA8F580910A01811521F08091C2
:10176000520287FD11C0EAE9F1E080EA91E021919F
:10177000C21701F18E179F07D1F78C2F0E944206E6
:101780000E94510BCF910895EC2FE695E695E695D2
:10179000F0E0E056FE4F828190E04C2F477021E050
:1017A00030E002C0220F331F4A95E2F782239323D1
:1017B000892B19F38C2F0E9476060E94510BDDCFE6
:1017C00080E28C0F883068F4C77081E090E001C03F
:1017D000880FCA95EAF7C0914C02C82BC0934C02FF
:1017E000CFCF8BE58C0F833038F42C2F2452330B62
:1017F000C9010E94F605C6CFE8E5EC0FEB3150F4C5
:10180000F0E0EE0FFF1FE05AFE4F808191810E94B1
:101810001C06B8CF83E38C0F833108F0B3CF61E0AF
:101820008C2F0E94D606AECF811581F19CEF980FC8
:10183000913A28F40E9476060E94510B089590E296
:10184000980F983050F4877091E001C0990F8A95F5
:10185000EAF7892F0E948003EFCF9BE5980F933022
:1018600028F480E090E00E94F605089598E5980F2E
:101870009B3128F480E090E00E941C06089593E3D9
:10188000980F933118F460E00E94D60608950F93E4
:101890001F93CF93C82F00E510E0893311F000E0CB
:1018A00010E08C2F0E94A30B0115110539F48C2F29
:1018B0000E94140CCF911F910F9108958FE99FE022
:1018C0000197F1F700C0000001501109EDCF81151B
:1018D00039F090914C02892B80934C020E94510B5D
:1018E0000895811521F00E9480030E94510B0895F4
:1018F000FF920F931F93CF93DF93C62FD42F122FF6
:101900008115A9F060934A020E94A2069093C40137
:101910008093C301C77081E001C0880FCA95EAF7C0
:101920000E94670CCDB7DEB7E5E00C94901D809166
:101930004A02681330C08091C3019091C4010E9493
:10194000B407883C910538F500E20D0FCD17A9F0DA
:10195000C770FF24F3948F2D01C0880FCA95EAF752
:101960000E94710C083048F48D2F877001C0FF0C65
:101970008A95EAF78F2D0E94670C812F0E94470CF1
:10198000083080F6D77081E001C0880FDA95EAF759
:101990000E94710CC7CFC77081E001C0880FCA9543
:1019A000EAF7F6CF10924C0280910A01811539F1C5
:1019B0008091520287FF23C0E2EAF1E08EE1DF016D
:1019C0001D928A95E9F780E090E00E94F60580E09C
:1019D00090E00E941C06109254020E94510B86E077
:1019E000E4E4F2E0DF011D928A95E9F710924202E9
:1019F00010924102109243020E94AE060895EAE955
:101A0000F1E086E0DCCF0E94D20C2FEF84E39CE073
:101A1000215080409040E1F700C0000088E19CE048
:101A20000FB6F894A895809360000FBE9093600065
:101A3000FFCFA9E0B0E0EFE1FDE00C94671D5C0191
:101A4000FC018481811509F4A5C061E0C5010E94F3
:101A5000DD0A8C01F5018581811509F43AC19801EF
:101A600037572038310508F0DCC4003108F082C057
:101A70008FEF93E00E94B21D81117CC049EAE42EF1
:101A8000FF24F394011148C0CE0101963C0188E087
:101A9000F30111928A95E9F76701FFEFCF1ADF0A88
:101AA000C7010E94B21D89831A82811509F462C0A0
:101AB000813009F073C087010E5F1F4FC6010E947D
:101AC000B21D8A83811509F455C09FEF980F93309A
:101AD00090F523E0E20EF11CC8010E94B21D8B8339
:101AE000811509F447C01C828301F801208121156A
:101AF00099F2213009F095C08181813009F050C000
:101B00006801F2E0CF0ED11CF80182810E94470CDF
:101B100086010F5F1F4FE9CFE114F4E0FF0651F19A
:101B2000C7010E94B21D97012F5F3F4F79018111BC
:101B3000F3CF0150A7CF8430A1F432E0E32EF12C93
:101B4000C8010F5F1F4F0E94B21DF301EE0DFF1D74
:101B50008083811579F08C3731F4FE01EE0DFF1D85
:101B600012827801C1CF3FEFE31AF30A67E0E6166D
:101B7000F10431F7809151028770811559F0F50118
:101B80008581811539F08091530282FF03C082E084
:101B90000E9441032996E2E10C94831D7601A4CFB3
:101BA000823049F46801F2E0CF0ED11CF801828145
:101BB0000E94A30BADCF833049F46801F2E0CF0E51
:101BC000D11CF80182810E94140CA2CF843019F03C
:101BD0000F5F1F4F9ECF82810E5F1F4F812C912C74
:101BE00098012F5F3F4F8053990B8A30910560F029
:101BF000C401009709F48DCFEFE9FFE03197F1F7C9
:101C000000C000000197F5CFFAE0F89DA001F99D12
:101C1000500D11244C01840E951EF801818189011B
:101C2000DFCFE22FF0E0E15EFB4F34913987822F66
:101C300086958695869590E0FC01E15FFB4FE491E7
:101C40002770F0E0022E02C0F595E7950A94E2F7BE
:101C5000E1702E2E3324FC01E150FC4FE491F0E0C2
:101C6000022E02C0F595E7950A94E2F7E1704E2E38
:101C70005524FC01E151FC4FC490D12C02C0D594F5
:101C8000C7942A95E2F7C0FACC24DD24C0F82114C9
:101C9000310419F081EE0E94A30B4114510419F094
:101CA00086EE0E94A30B89850E94470C41145104C3
:101CB00019F086EE0E94140C2114310419F081EE03
:101CC0000E94140CCD2809F424CF8CE20E94470C0A
:101CD00020CFF801E851FC47E730F10508F093C345
:101CE000EA5DF14E0C945A1D26E241EE61EE0E942F
:101CF000780C40CF27E245EE65EEF9CF26E241EEC3
:101D000060EEF5CF27E245EE64EEF1CF26E241EE3C
:101D100062EEEDCF27E245EE66EEE9CF28E241E044
:101D2000EBCF809152028160809352026091520207
:101D30007091530284E090E00E94EE1D0E94D20C4C
:101D400019CF80915302886080935302EFCF809126
:101D500052028260E9CF809152028460E5CF809187
:101D600052028860E1CF809153028160EDCF809173
:101D700053028260E9CF809152028061D5CF809179
:101D800052028062D1CF809152028064CDCF0E94F6
:101D9000D20C809152028068C7CF809152028C6031
:101DA000C3CF809153028360CFCF809152028E7F48
:101DB000BBCF80915302877FC7CF809152028D7F26
:101DC000B3CF809152028B7FAFCF80915202877F39
:101DD000ABCF809153028E7FB7CF809153028D7F1E
:101DE000B3CF809152028F7E9FCF809152028F7D20
:101DF0009BCF809152028F7B97CF0E94D20C809113
:101E000052028F7791CF80915202837F8DCF809144
:101E100053028C7F99CF80915202992782FF93952C
:101E200090FB82F990FB83F97FCF80915302982F2A
:101E3000909590FB80F990FB81F986CF90915202AA
:101E4000892F8F7B96FF80646FCF0E94D20C909178
:101E50005202892F97FB87F9805866CF61E08EE0A8
:101E600090E00E94D01D62CF60E0F9CF90915202C5
:101E7000892F8F7E94FF806157CF90915202892FD6
:101E80008E7F90FF816050CF90915302892F877F82
:101E900093FF886059CF89E2B1C289E2BFC2073798
:101EA0006CE7160709F469C008379CE7190709F4BD
:101EB00073C08115A9F00A35ECE71E0709F498C034
:101EC00008F070C001302CE7120709F48FC003300E
:101ED0003CE7130709F484C001151C4709F473C0DB
:101EE000F5018581E080F180811509F485C0C70185
:101EF0000E94B20A182F682FC7010E94AC02B701D6
:101F0000812F0E94A40A0E9478048C01F501D580DB
:101F1000C680C2942FE0C222809151028770811541
:101F200001F1FD2CD114F1F0812F807F803461F01C
:101F300080E2800F8830A8F0812F807E803221F4EB
:101F4000023078F0C11469F08091530282FF09C019
:101F500082E00E944103809151028770FF24F39434
:101F60008111F12CE12FE295EF70103C08F0AFC029
:101F7000F0E0E35DF14E0C945A1D811549F081E0CB
:101F80000E94900243E062E081E00E941603F2CDDD
:101F900081E00E949C02F6CF811511F082E0F0CF23
:101FA00082E0F7CF0B358CE7180721F180915302BF
:101FB000002482FF0394802D0C351C4709F090CF3C
:101FC0000E94C2098DCF0E94D20CEFEFF4E32CE007
:101FD000E150F0402040E1F700C000000E943809C5
:101FE0006FEF7FEF80E090E00E94EE1D0E94030DF6
:101FF00081E0E6CF80E0E4CFC7010E94E202182F23
:102000007ECFF12FFF70EF2E103118F0E29490EF99
:10201000E922D114B9F0E11469F080E2800F883030
:1020200010F0011109C080914C028E2980934C025E
:102030000E94510B802F43C0809154028E298093BF
:102040005402F6CF802F0E94140CE11409F43FC013
:1020500080E2800F883010F0011104C08E2D0E94A4
:10206000800306C0E094809154028E218093540234
:102070000E94510B2CC0212F2F70E22E107F1032A6
:1020800019F0E29480EFE822011549F0013009F4DB
:102090006BC0D11409F477C0C114C9F1CBCF8091C2
:1020A000530282FD30C0D11469F0E11439F08091FF
:1020B0004C028E2980934C020E94510B80E00E94BA
:1020C000A30B05C080E00E94140CE110C7CFF114EF
:1020D000A9F08091510280FD11C0F501158286950D
:1020E000869586950E949002C5010E94190D8091E7
:1020F00051028695869586950E949C0260E0C501F6
:102100000E94DD0A47CDD11499F0C11004C08E2D74
:102110000E94670CDCCF31E0C312D9CF90914D0201
:102120008E2D8923E81699F29E2990934D02CFCFE8
:10213000C110CDCF8E2D0E94710C90914D028E2D2D
:102140008923811529F08E2D8095892380934D0256
:1021500080914E029E2D9823911509F4B8CFE094FA
:10216000E822E0924E02B3CFD11429F066E0C61601
:1021700008F0ADCFCCCF85E0C81608F0A8CF8E2DE3
:102180000E94710CA4CFC114D1F3093349F49FEF1D
:10219000E7EEF3E09150E040F040E1F700C00000CE
:1021A000802F0E94140C93CF812F86958695837083
:1021B000811561F0813009F08ACFC8019370D11088
:1021C00002C080E090E00E941C0681CFC80193709D
:1021D000D11002C080E090E00E94F60578CF6D2D0E
:1021E000802F0E94D60673CF812F8370811134C057
:1021F000D11027C0402F429546954770440F440F99
:10220000802F8F70042E01C0880F0A94EAF7202FC8
:10221000207104FF07C02FE030E001C0220F4A9573
:10222000EAF72095169516951370123081F0133049
:1022300061F030914F02113039F0822B83230E94DC
:102240008A020E94E90543CF832B822BF8CF822B91
:1022500090914F028927F3CFD11451F110FFF1CFA4
:10226000402F429546954770440F440F802F8F7042
:10227000042E01C0880F0A94EAF7202F207104FF72
:1022800007C02FE030E001C0220F4A95EAF7209501
:10229000169516951370123089F0133069F030914D
:1022A0005002113041F0822B83230E948D02C9CF4E
:1022B0008230B0F6C6CF832B822BF7CF822B909142
:1022C00050028927F2CF1F70D11439F0812F0E945C
:1022D0009002802F0E94670CB4CF802F0E94710C57
:1022E000812F0E949C02ADCF023F71F170F4003F3C
:1022F000C9F0013F91F0D11409F45AC0C11409F496
:1023000054C0802F0E94A30B9CCF033F21F1043FB8
:1023100091F78091530282FD2AC0812F8F71D114D1
:1023200001F316C0D11469F025E0C21608F089CF78
:102330001F7181E090E0012E01C0880F0A94EAF736
:10234000BECF36E0C316F2CF812F8F71D110C9CF27
:102350000E94900276CF80E0D11409F4A6CF1F71BD
:1023600081E0012E01C0880F0A94EAF79ECFD114B4
:1023700089F01F71812F0E9490028091530282FF89
:1023800007C0812F880F880F880F836080935102C8
:10239000812FDECF81E00E94410362E0C61608F47F
:1023A00050CF82E00E9441034CCF812F8F71D0CF5C
:1023B000C11479F0093349F48FEF97EEE3E08150CF
:1023C0009040E040E1F700C00000802F0E94140C14
:1023D00038CF812F8F7185CF0631FCE71F0709F0B9
:1023E0005ECD80914C028A7A91E0811101C090E02B
:1023F00090934B02811509F44ECD85E30E9442066D
:102400000E94510BB7CB06312CE7120709F047CDDC
:1024100080914B02811509F440CD85E30E94760638
:10242000EFCFF801E851FC47E730F10508F458CC4C
:1024300010924A02980130572332310568F684E041
:1024400090E00E94BA1D9093530280935202F801CB
:10245000E150F047E232F10508F063CCE75CF14E61
:102460000C945A1D80919502803178F480919402E9
:10247000811559F0E0915602209155023091900259
:1024800040918F0257E02E1301C008956E2F70E027
:102490005E9FF0011124DF01A95ABD4F14968C9163
:1024A0001497811561F111968C911197831327C0B0
:1024B0008C91841324C015968C91159781111FC09F
:1024C00012968D919C91A0919102B09192028A1BDB
:1024D0009B0B883C910598F4809195028F708061E8
:1024E00080939502E35AFD4F80818F7080618083D5
:1024F0008FE892E00E94190D0E9437030895FB01B6
:102500003196E770C0CFADE0B0E0E9E8F2E10C94BD
:102510006B1D8C0186E0F801DE01189601900D928A
:102520008A95E1F7F801F58084819FE8892E92E091
:10253000992E60909302611018C0811599F0F114E2
:1025400009F415C1C8010E940C0B811509F40FC1D3
:1025500087E0F801AFE8B2E001900D928A95E1F7CB
:102560000E943212FF24F39456C07080A280B38080
:10257000D09094022091910230919202A501421BC9
:10258000530BD11409F4C3C0483C510508F079C07D
:10259000811541F380919002C180E090950250E155
:1025A000E51608F059C0C81215C080918F02871136
:1025B00011C0F1104BC08E2D8F70806180939502F9
:1025C0008FE892E00E94190D80919502F8018683B0
:1025D000F12C21C0F1103AC040E06C2D872D0E94F3
:1025E000190940E06C2D872D0E941909F82E8111E0
:1025F000EFCF888599850E94FD0A292F22952F709B
:10260000903470F49F702230A0F09115B1F0F80171
:102610009681903190F48F2D2D96EEE00C94871DCD
:102620002A5F2F70223068F0C8010E94190DFD2C1E
:10263000F2CF911511F0811571F3805E883058F357
:10264000F3CF803F40F3815F8330F9CF80919502D3
:10265000816080939502BCCFC8123BC080918F02ED
:10266000871137C0F11035C0E682C8010E94190DEC
:1026700087E0F801AFE8B2E001900D928A95E1F7AA
:1026800071CFE0909502F0E1EF1650F48FE892E000
:102690000E94190D87E0F40111928A95E9F798CF0D
:1026A000811509F45FCF90919002F8018181981310
:1026B00010C080918F0287110CC0F1100AC0E68211
:1026C000C8010E94190D87E0F40111928A95E9F77B
:1026D00049CFC8010E940C0B811509F448C0F114C0
:1026E00009F445C080919502803208F431CF809181
:1026F0008F02909190029A838983BC82AB826D8213
:102700001E82EF82CE0101960E94190D21CF483C16
:10271000510508F0BFCF811509F424CFF11439F128
:10272000909190028181981318C080918F02871137
:1027300014C08091950280FD9BCF803108F498CF22
:102740008683807F803F09F490CF8681982F907F89
:10275000905F8F70892B868388CFC8010E940C0BF5
:102760008111F6CE80919502816080939502C80117
:102770000E94190DF7CEABE1B0E0E1ECF3E10C946F
:10278000751D4E8B5F8B688F798F8A8F192F9B8F6A
:102790009111109254021D8A86E0FE017696DE01A8
:1027A0001F9601900D928A95E1F70A8D011539F077
:1027B0000B8B1C8B61E0CE010F960E94DD0A0B8B08
:1027C0001C8B87E0FE013F96DE01189601900D926A
:1027D0008A95E1F7CE0108960E948312811128C0E4
:1027E000209155023091560287E0FE013896DE01B5
:1027F000119601900D928A95E1F78C858115C1F0B3
:10280000822F90E001968770992738171906D9F022
:1028100097E0929FD0011124A95ABD4FFE01319635
:1028200001900D929A95E1F7809355020E9437032B
:1028300017E08091560290915502891312C06B9651
:10284000E4E00C94911D0E94D20C1092550210925B
:10285000560287E0EFE8F2E0DF011D928A95E9F782
:10286000E7CF189FC0011124895A9D4F0E948312FF
:10287000811529F38091560290E00196877099277F
:1028800080935602D6CFA6E0B0E0E9E4F4E10C94E0
:10289000751D0E94A2068C01809103029091040292
:1028A0008017910779F019821A820E94A206BC0152
:1028B00049815A8180E090E00E94BB13109304028A
:1028C000009303022696E4E00C94911DAAE2B0E086
:1028D000ECE6F4E10C94761D89EC91E0FC010196A4
:1028E0002091F100208321E0813D9207B9F780918A
:1028F000CA01893009F456C0C8F4823009F4B3C063
:10290000833009F482C0813071F18091E80083FF47
:10291000E7C08091C9019091CA019A3008F0E0C0E7
:10292000E92FF0E0E55AF14E0C945A1D8A3009F473
:1029300089C08B3051F78091C901813231F7809184
:10294000CD019091CE01892B01F78091E800877F1E
:102950008093E8000E941F088091CB0180930A01B8
:102960000E94D20CD2CF8091C901813A71F6809138
:10297000E800877F8093E8008091CD019091CE019F
:10298000892B61F060E080E090E070E00E94C60773
:102990008091E8008B778093E800B7CF68E081ED05
:1029A00091E0F3CF8091C901813209F0AECF8091DF
:1029B000CD019091CE018D7F892B09F0A6CF80911A
:1029C000E800877F8093E8008091E80082FF18C0CC
:1029D0009091F3008091F200029731F48091F10020
:1029E000813011F0863021F48091F1008093D9017B
:1029F0008091E8008B778093E8000E941F0885CFC4
:102A0000809102028111E0CF80CF8091C901813A8B
:102A100009F07BCF8091CD019091CE01892B09F0F7
:102A200074CF8091E800877F8093E8008091E80070
:102A300080FFFCCF80910A018093F1008091E80033
:102A40008E77D9CF8091C901813209F05ECF809114
:102A5000E800877F8093E8000E941F088091CC01E6
:102A60008093C50152CF8091C901813A09F04DCFC1
:102A70008091E800877F8093E8008091E80080FFE4
:102A8000FCCF8091C501D8CF803889F0823841F5DC
:102A90008091CD018F70873018F58093E900809187
:102AA000EB0085FB882780F91092E90006C0809131
:102AB000EB01880F9091C601892B9091E800977FD8
:102AC0009093E8008093F1001092F1008091E8006B
:102AD0008E7723C0811116C08091CB01813011F116
:102AE0008091E80083FF0AC08091E800877F80938F
:102AF000E8008091EB0080628093EB00AA96E3E00F
:102B00000C94921D823061F78091CB01811589F080
:102B10001092E9008091E800877F8093E8000E948E
:102B20001F08DECF81E0933009F080E08093EB0155
:102B3000EFCF8091CD018F702FEF280F263080F6D8
:102B40008093E9002091EB0020FFE2CF933031F435
:102B50008091EB0080628093EB00DACF9091EB00E4
:102B600090619093EB0021E030E0A90102C0440F96
:102B7000551F8A95E2F74093EA001092EA0080918F
:102B8000EB008860E8CF8111ABCF1091CB011F77AC
:102B90008091E3008078812B8093E3008091E800AE
:102BA000877F8093E8000E941F088091E80080FFE3
:102BB000FCCF8091E30080688093E30083E01111F3
:102BC00001C082E0809302028BCF8058823008F0EF
:102BD00087CF8091CB019091CC018C3D53E095073C
:102BE00099F583E08A838AE289834FB7F894DE01FE
:102BF000139620E03EE051E2E32FF0E050935700BF
:102C0000849120FF03C082958F703F5F8F708A3060
:102C1000C8F0895C90E08D939D932F5F243161F71C
:102C20004FBF8091E800877F8093E8006AE270E000
:102C3000CE0101960E94C6078091E8008B778093B1
:102C4000E8004ECF805DE6CF292F332723303105B2
:102C500009F44DC078F52130310509F47CC08BE5CD
:102C600090E0E8ECF1E02230310509F039CF209115
:102C7000E800277F2093E8002091CF013091D00118
:102C80008217930708F49C0140E02115310509F0F3
:102C900067C0411165C08091E80082FDCDCF809171
:102CA0000202811549F2853039F28091E80083FFF4
:102CB000F2CFC2CF8091CD019091CE01213231056A
:102CC000D9F12232310509F00BCF8330910508F09C
:102CD00007CFFC01EE0FFF1FE25FFE4F0190F08176
:102CE000E02D855F9E4FDC018C9190E011C09C012E
:102CF0003327813089F022303105B1F0232B09F0E0
:102D0000EFCEEBE6F2E0E4918E2F90E0EBE6F2E01E
:102D1000009709F4E5CEABCFE5E5F2E0E4918E2F24
:102D200090E0E5E5F2E0F4CFE5E3F2E0E4918E2F08
:102D300090E0E5E3F2E0ECCF8330910508F0D0CEEF
:102D4000FC01EE0FFF1FEC5EFE4F0190F081E02DC5
:102D500089E090E08CCF82E190E0E3E2F2E087CF7F
:102D600080910202811509F467CF853009F464CFA0
:102D70008091E80083FD60CF8091E80082FD8BCFD9
:102D80008091E80080FF81CF9091F3008091F20064
:102D90002115310519F08830910550F041E0089770
:102DA00009F040E08091E8008E778093E8006DCFD5
:102DB00044914093F1003196215031090196E8CFBA
:102DC000803809F08DCE8091E800877F8093E800FD
:102DD0008091C7018093F10079CE811181CE10914D
:102DE000CB01123008F07CCE8091E800877F809381
:102DF000E8001093C7010E941F081115D1F084E06C
:102E00008093020242E061EC81E00E948E0842E27F
:102E100061EC84E00E948E0842E261EC82E00E9454
:102E20008E0842E260EC83E00E948E0880910202EC
:102E300057CE8091E30087FDE2CF81E0E1CFA8E0AB
:102E4000B0E0E5E2F7E10C94691DFE01319688E0FF
:102E5000DF011D928A95E9F79AE1C92E91E0D92EFA
:102E60008F012F0166246394712C3AE2832E31E0A6
:102E7000932EF60181916F018F3F09F445C0F894BC
:102E8000E82FE295EF70F0E021A18F70A30102C05E
:102E9000440F551F8A95E2F7CA01922F982B91A3F0
:102EA00092A18095892382A3789400C0EEE1F1E09D
:102EB00021E030E0A12CB12C41914F3F81F0A42FB3
:102EC000A295AF70A05EB0E08C9190E04F7002C010
:102ED000959587954A95E2F7790180FF02C0E12C2C
:102EE000F12CAE28BF28220F331F8E169F0621F724
:102EF000F60182918F3F11F00E947D0550EA5A95AC
:102F0000F1F7D801AD92BC920E5F1F4FBEE1CB1618
:102F1000B1E0DB0609F0ADCF48E050E0B20182EE4F
:102F200091E00E94041E892BA9F088E0F201A2EE34
:102F3000B1E001900D928A95E1F781E08093C201A2
:102F40000E94A2069093C1018093C0012896E0E1FF
:102F50000C94851D8091C2018115C1F38091C0013F
:102F60009091C1010E94B407059780F348E050E0BA
:102F700062EE71E08AEF91E00E94041E892B49F015
:102F800088E0E2EEF1E0AAEFB1E001900D928A95BF
:102F9000E1F71092C201DACFCDB7DEB7A0970FB636
:102FA000F894DEBF0FBECDBF85B7806885BF85B7FB
:102FB000806885BF84B7877F84BF0FB6F894A895D3
:102FC00080916000886180936000109260000FBE65
:102FD00080E890E00FB6F8948093610090936100D0
:102FE0000FBE8BE795E090939701809396010E9426
:102FF0006F080E94BE088091E20084608093E20026
:10300000789480910202811599F08091E9001091E5
:10301000EC008F70179511271795182B1092E90067
:103020008091E80083FD0E9466141F701093E900F0
:1030300082E084BD93E095BD9AEF97BD80936E00CA
:103040000E94380B811102C00E94650A80E30E9431
:103050007D0581E30E947D0582E30E947D0587E670
:103060000E947D050EE111E0EAE2EE2EE1E0FE2E87
:10307000D8018D918D018F3F11F00E947D05E016E2
:10308000F106B1F788E0EAEFF1E0DF01282F1D92A9
:103090002A95E9F7E2EEF1E0DF011D928A95E9F762
:1030A00080E090E00E94BA1D863E9E4F21F40E946F
:1030B000380B811168C066EE7EEF80E090E00E94E0
:1030C000EE1D60E082E090E00E94D01D81E08093E0
:1030D0004F0261E083E090E00E94D01D60E074E167
:1030E00084E090E00E94EE1D60E086E090E00E94A7
:1030F000D01D6FEF87E090E00E94D01D40E050E0CF
:10310000BA0188E090E00E94E21D60E084E290E075
:103110000E94D01D60E087E190E00E94D01D60E039
:103120008CE090E00E94D01D60E08DE090E00E9475
:10313000D01D19821A821B821C821D821E821F8250
:10314000188648E050E068E170E0CE0101960E94E8
:10315000C01D40E050E0BA0180E290E00E94E21D14
:1031600080E00E94490A0E94650A40E050E0BA01EE
:103170008FE090E00E94E21D40E050E0BA0183E160
:1031800090E00E94E21D82E090E00E94B21D8093D8
:10319000EC0184E090E00E94BA1D9093530280936A
:1031A00052020E941F17EFEFF6E721E0E150F040D6
:1031B0002040E1F700C000000E941F178091FA0133
:1031C0009091FB0180FF08C06FEF7FEF80E090E0FF
:1031D0000E94EE1D0E94380983E090E00E94B21D1B
:1031E0000E948A0280E091E090932602809325025B
:1031F00080910202853049F480910202853009F401
:103200005AC00E94D20C0E94E9050E941F176DEE61
:10321000862E61E0962E7AEF472E71E0572ED2016E
:10322000F401219131918D919D9141E0E53FF407A9
:1032300009F493C028173907A1F3312CD2010D915D
:103240001D912D01F401619071904F01601671067E
:1032500059F160267126212CEE24E394F12CC7014C
:1032600086219721892BB9F029823A820E94A206F1
:103270009C838B83F1E0FD8391E097012023312330
:10328000232B09F490E09E8349815A816B817C81D4
:103290008D810E94BB132394EE0CFF1C2CE02212A4
:1032A000DECFF40112930293339444E03412C6CF7C
:1032B0000E94A80758C080910202843021F1109228
:1032C000EA0188E190E0A0E40FB6F894A895809315
:1032D00060000FBEA093600083B7817F846083BFCE
:1032E00083B7816083BF7894889583B78E7F83BFCF
:1032F0000FB6F894A8958091600088618093600073
:10330000109260000FBE8091EB01811509F474CF1B
:103310000E941F17EAEFF1E081919191892B29F426
:10332000B2E0E230FB07C1F767CFE0E1E9BD82E13F
:1033300089BD09B400FEFDCF8091D8008F7D8093B8
:10334000D8008091E00082608093E0008091E000EE
:1033500081FDFCCF0E94D20C4FCF2817390709F00E
:103360006CCF0E94431486E0E4E4F2E0DE011196A3
:1033700001900D928A95E1F790904502F0904602F7
:1033800010914702E09048020091490210924602D3
:10339000109247021092480210924902812F8F2901
:1033A000811509F440C08091F7019091F8010E94C5
:1033B000B4076C0180914202811509F4F3C195E1D3
:1033C000C916D10480F18F3F19F08F5F80934202BC
:1033D000F11459F00E94A40591E01F140CF09FEF26
:1033E000899F802D112480934602111559F00E9467
:1033F000A40591E011160CF09FEF899F802D1124F8
:103400008093470280914602811569F080904702BF
:10341000811449F00E94960580934602882D0E94EF
:103420009605809347028E2D802B811509F440C0AC
:103430008091F5019091F6010E94B4075C018091A2
:103440004102811509F4A8C1A1E5AA16B10480F1D1
:103450008F3F19F08F5F80934102E11459F00E9471
:10346000C40591E01E140CF09FEF899F802D11245C
:1034700080934802011559F00E94C40591E010168E
:103480000CF09FEF899F802D112480934902809139
:103490004802811569F0E0904902E11449F00E9468
:1034A0009605809348028E2D0E94960580934902CE
:1034B00080914502891119C080914602811511F051
:1034C0008F1113C020914702211511F021130DC057
:1034D00090914902911511F0901307C03091480264
:1034E000311103C0822B892B81110E94AE0686E028
:1034F000FE013196A4E4B2E001900D928A95E1F7C5
:103500000E94E9059091F901891721F08093F90152
:103510000E94A80780910202843009F069CE83E0FE
:103520008093E9008091E80082FF62CE8091E800FC
:1035300090E085FF0BC00E943E0830E2E32EF12CA4
:103540008E010F5F1F4F8115D9F091E08091E80047
:103550008B778093E800911509F44ACEE981E15018
:10356000E33140F5F0E0EB59F14E0C945A1D809197
:10357000F100F80181938F01F1E0EF1AF10829F3CE
:103580008091E80085FDF3CF8091E8008B778093F0
:10359000E8000E943E08811599F3D7CF1A828CE08B
:1035A0008B831AC08A81833049F138F4813061F00D
:1035B0008230D9F08FEF89830FC08430D9F71B8216
:1035C0001C821D821E8208C00E94A8070E94601DE6
:1035D0006B837C838D839E8340E250E0BE016F5FEE
:1035E0007F4F82E00E945C0903CE88E290E00E9457
:1035F000B21D1B821C821D828E83EECF8B8190E0D8
:10360000FE01319632968430910534F7DC01AA0F21
:10361000BB1FA650BE4F2C9111963C913183228343
:103620000196F0CF8A81823019F08530A9F2C2CF9D
:103630006B817C818D819E810E94601D88E290E07B
:103640000E94D01DC9CF4C816B818A810E94750A6E
:103650009827892798279E838D83BECF2D813E8111
:103660003227232732274C816B818A810E94D90916
:10367000B3CF0E94000AB0CF80E18A83ADCF82E051
:103680008A8387E58DCF0A811B81102701271027A8
:103690008C814801880E911C7E0125E0E20EF11C10
:1036A0008016910609F498CF80E0073542E01407B0
:1036B00028F4C80187559E4F0E94B21DD7018D93F3
:1036C0007D010F5F1F4FECCF0A811B81102701275F
:1036D0001027FE0131967F018C814F01880E911CCD
:1036E000E814F90409F478CF0735F2E01F0740F435
:1036F000D70114966C91C80187559E4F0E94D01D2A
:103700000F5F1F4FBFEFEB1AFB0AEACF0E94390A87
:1037100063CF84E0B2CF0A811B81102701271027D5
:103720008C814801880E911C7E01E5E0EE0EF11CB3
:103730008016910609F450CF80E00038F1E01F07B1
:1037400020F4C80189960E94B21DD7018D937D0196
:103750000F5F1F4FEDCF0A811B8110270127102714
:10376000FE0131967F018C814F01880E911CE81477
:10377000F90409F431CF0038F1E01F0738F4D7011C
:1037800014966C91C80189960E94D01D0F5F1F4F3F
:10379000BFEFEB1AFB0AEBCFEBE0AE16B10408F07B
:1037A00059CE86CEFBE0CF16D10408F00ECE3BCE2C
:1037B0001F921FB61F9211248F939F93AF93BF93B5
:1037C0008091EA01811113C08091DA019091DB01AF
:1037D000A091DC01B091DD014196A11DB11D809346
:1037E000DA019093DB01A093DC01B093DD01BF917E
:1037F000AF919F918F911F901FBE1F901895789445
:103800001F921FB61F9211248F939F93AF93BF9364
:103810008091DA019091DB01A091DC01B091DD0192
:103820000196A11DB11D8093DA019093DB01A09355
:10383000DC01B093DD01BF91AF919F918F911F90FB
:103840001FBE1F9018951F920F920FB60F92112452
:103850002F933F934F935F936F937F938F939F9398
:10386000AF93BF93EF93FF938091E10082FF09C074
:103870008091E20082FF05C08091E1008B7F809300
:10388000E1008091DA0080FF24C08091D80080FFA1
:1038900020C08091DA008E7F8093DA008091D90079
:1038A00080FF9BC080E189BD82E189BD09B400FE33
:1038B000FDCF81E0809302028091C801811109C08F
:1038C0000E946F080E94BE088091E200846080938D
:1038D000E2008091E10080FF17C08091E20080FF4C
:1038E00013C08091E2008E7F8093E2008091E2001D
:1038F00080618093E2008091D80080628093D8003C
:1039000019BC85E0809302028091E10084FF29C008
:103910008091E20084FF25C080E189BD82E189BDFC
:1039200009B400FEFDCF8091D8008F7D8093D80030
:103930008091E1008F7E8093E1008091E2008F7E94
:103940008093E2008091E20081608093E2008091A8
:10395000C701811509F447C084E080930202809179
:1039600002028091E10083FF27C08091E20083FF83
:1039700023C08091E100877F8093E10082E0809303
:1039800002021092C7018091E1008E7F8093E100D6
:103990008091E2008E7F8093E2008091E20080615E
:1039A0008093E20042E060E080E00E948E08809117
:1039B000F00088608093F000FF91EF91BF91AF918C
:1039C0009F918F917F916F915F914F913F912F9137
:1039D0000F900FBE0F901F90189519BC1092020205
:1039E0001092C80176CF8091E30087FF02C083E088
:1039F000B4CF81E0B2CF1F920F920FB60F92112475
:103A0000EF92FF920F931F932F933F934F935F93E8
:103A10006F937F938F939F93AF93BF93CF93EF93C6
:103A2000FF9309EE10E0F8018081C091EC008F70E7
:103A3000C795CC27C795C82B108280EFE82EF12CB4
:103A4000F7018081877F808378940E946614F80153
:103A50001082F701808188608083CF70F801C08375
:103A6000FF91EF91CF91BF91AF919F918F917F91F6
:103A70006F915F914F913F912F911F910F91FF9007
:103A8000EF900F900FBE0F901F90189597FB072E89
:103A900016F4009407D077FD09D00E949E1D07FC04
:103AA00005D03EF4909581959F4F0895709561954E
:103AB0007F4F0895EE0FFF1F0590F491E02D0994BC
:103AC00069279627692778278727782708952F92CF
:103AD0003F924F925F926F927F928F929F92AF929E
:103AE000BF92CF92DF92EF92FF920F931F93CF93EB
:103AF000DF93CDB7DEB7CA1BDB0B0FB6F894DEBF82
:103B00000FBECDBF09942A88398848885F846E84A7
:103B10007D848C849B84AA84B984C884DF80EE80F1
:103B2000FD800C811B81AA81B981CE0FD11D0FB6FA
:103B3000F894DEBF0FBECDBFED010895AA1BBB1BDD
:103B400051E107C0AA1FBB1FA617B70710F0A61B9D
:103B5000B70B881F991F5A95A9F780959095BC01BE
:103B6000CD010895F999FECF92BD81BDF89A9927AC
:103B700080B50895A8E1B0E042E050E00C94F61D55
:103B8000DC01A40FB51F4150504048F0CB01840F19
:103B9000951F2E910E94D11D41505040D0F708959D
:103BA000262FF999FECF92BD81BDF89A019700B4F6
:103BB000021639F01FBA20BD0FB6F894FA9AF99A96
:103BC0000FBE08950396272F0E94D11D0E94D01D7D
:103BD000252F0E94D11D242F0C94D11D0196272F33
:103BE0000E94D11D0C94D01DDC01CB01FC01F99980
:103BF000FECF06C0F2BDE1BDF89A319600B40D9239
:103C000041505040B8F70895FB01DC0104C08D918C
:103C10000190801921F441505040C8F7881B990B3E
:103C20000895F894FFCFF506FD06000706071B0769
:103C30001B071B071B071B071B071B071B07090786
:103C40000E071207180729072F0733077E0E820E6B
:103C5000740E7A0E860E8A0E8E0E011001103B1025
:103C60003B10D410EF1067106710F410631174113B
:103C70007411D50E3D0FDD0EA70EAB0EE10EAF0E8B
:103C8000E50EF10EBB0E360FBF0EF50EC30EF90E8C
:103C90001E0FC70EFD0E250FCD0E030F0B0FB30E1B
:103CA000E90EB70EED0ED10E070F150F2E0F340FC4
:103CB000A10ED90E440F44156A1570156A157015BA
:103CC000C315E5157015E016ED16CE1AD21A121BA3
:103CD000231B2E1B391BDA1ADA1ADA1ADA1ADA1A45
:103CE0003C1B3F1B431B641B861B891B8B1BAB1B95
:103CF000C3079609AD09B409BB09014422B6840182
:103D00006201AC00DA01F301130230313267F0F1E5
:103D1000F4F5F6F7663635349796E200E900EA00E6
:103D2000B500B600B700CD008301CC008A01920136
:103D300094012102230224022502260227022A02DC
:103D4000B300B4006F0070009F01CB019F02A0027E
:103D5000E200E900EA00B500B600B700CD0083013B
:103D6000CC008A019201940121022302240225023F
:103D7000260227022A02B300B4006F0070009F01E0
:063D8000CB019F02A0022E
:00000001FF
