:100000000C9437060C9454060C9454060C94373018
:100010000C9454060C9454060C9454060C945406F8
:100020000C9454060C9454060C94762D0C944E2E7D
:100030000C94161B0C9454060C9454060C94540601
:100040000C9454060C9454060C9454060C945406C8
:100050000C9454060C94522D0C9454060C94540693
:100060000C9454060C9454060C9454060C945406A8
:100070000C9454060C9454060C9454060C94540698
:100080000C9454060C9454060C9454060C94540688
:100090000C9454060C9454060C9454060C94540678
:1000A0000C9454060C9454060C94540605010980D3
:1000B000A101850319012AB700150126B700950192
:1000C00075108100C0050C0901A101850419012AE0
:1000D000A002150126A002950175108100C005013E
:1000E0000906A1018506050719E029E71500250184
:1000F0009508750181020507190029EF15002501F2
:1001000095F075018102050819012905950575010C
:100110009102950175039101C00660FF0961A1017B
:100120000962150026FF00952075088102096315F4
:100130000026FF00952075089102C005010906A15F
:1001400001050719E029E7150025019508750181CA
:10015000029501750881010507190029FF15002680
:10016000FF0095067508810005081901290515008D
:100170002501950575019102950175039101C00056
:10018000AF00AE0000000000003E5B4F5B3E003E53
:100190006B4F6B3E001C3E7C3E1C00183C7E3C18A6
:1001A000001C577D571C001C5E7F5E1C0000183C25
:1001B000180000FFE7C3E7FF00001824180000FF45
:1001C000E7DBE7FF0030483A060E002629792926AA
:1001D00000407F05050700407F05253F005A3CE7AA
:1001E0003C5A007F3E1C1C0800081C1C3E7F00146B
:1001F000227F2214005F5F005F5F0006097F017F9E
:1002000000006689956A0060606060600094A2FFEB
:10021000A2940008047E04080010207E201000082C
:10022000082A1C0800081C2A0808001E10101010BC
:10023000000C1E0C1E0C0030383E383000060E3EFE
:100240000E060000000000000000005F000000003B
:100250000700070000147F147F1400242A7F2A124D
:100260000023130864620036495620500000080736
:10027000030000001C224100000041221C00002A53
:100280001C7F1C2A0008083E08080000807030000F
:10029000000808080808000000606000002010083E
:1002A0000402003E5149453E0000427F400000727A
:1002B00049494946002141494D33001814127F1025
:1002C000002745454539003C4A4949310041211143
:1002D000090700364949493600464949291E0000A8
:1002E0000014000000004034000000000814224107
:1002F00000141414141400004122140800020159BF
:100300000906003E415D594E007C1211127C007FAF
:1003100049494936003E41414122007F4141413E29
:10032000007F49494941007F09090901003E4141D7
:100330005173007F0808087F0000417F41000020C2
:1003400040413F01007F08142241007F404040406F
:10035000007F021C027F007F0408107F003E4141A5
:10036000413E007F09090906003E4151215E007FA0
:10037000091929460026494949320003017F010332
:10038000003F4040403F001F2040201F003F4038BA
:10039000403F006314081463000304780403006101
:1003A00059494D4300007F4141410002040810209B
:1003B00000004141417F000402010204004040402E
:1003C0004040000003070800002054547840007F9C
:1003D0002844443800384444442800384444287FA2
:1003E0000038545454180000087E090200182424D0
:1003F0001C78007F080404780000447D4000002041
:1004000040403D00007F102844000000417F400034
:10041000007C04780478007C0804047800384444A4
:100420004438007C1824241800182424187C007CEC
:10043000080404080048545454240004043F44248D
:10044000003C4040207C001C2040201C003C4030F0
:10045000403C004428102844004C9090907C00447C
:1004600064544C440000083641000000007700004E
:10047000000041360800000201020402003C26236D
:10048000263C00000000000000000000000000000A
:10049000000000C0E0F0F8F81800C0F0FCFEFFFF1C
:1004A000FFFFFFFFFF7E0000000000000000008053
:1004B000C0E0E0E0E0E0E0E0E0C0800000000080BC
:1004C000C0E0E0E0E0E0E0E0E0C080000000E0E06C
:1004D000C0C0E0E0E0E00000E0E0C0C0E0E0E0E05C
:1004E000E0C0800000000080C0E0E0E0E0E0E0E08C
:1004F000E0C08000000000000000000000000000DC
:1005000000E0F0F0F0E0ECEEF7F37020007C7C7C93
:100510007E007E7E7E7F7F7F000080C0E07E5B4F1E
:100520005BFEC00000C000DCD7DEDEDED7DC00C032
:1005300000000000000000000000000000000000BB
:10054000000000000000000000000000F8FCFEFFBA
:10055000E000FFFFFFFFFFFF80FFFFFFFFFFFFFF48
:10056000FFFF1F0701000000000000000000FFFF68
:10057000FF8100000000000081C3C3C30000FFFF33
:10058000FF8100000000000081FFFFFF0000FFFF6F
:10059000FF01000000000000FFFFFF01000000005D
:1005A00001FFFFFF0000FFFFFF9D1C1C1C1C1C1C0B
:1005B0009DDFDFDF00000000000000000000000001
:1005C000000F1F3F7F7F7F7F7F3F1E0C001F1F1F7D
:1005D0003F003F3F3F7F7F7F00307B7F7830202090
:1005E00030787F3B0003000F7F0F0F0F7F0F00035A
:1005F00000000000000000000000000000000000FB
:10060000000000000000000000000000030F1F3F7A
:100610003F3F3F1F1F3F3F7F7F7F3F3F1F3F7F7F0A
:100620007F7F7C7878381C0F0000000000000001FC
:10063000030707070707070707030100000000017A
:10064000030707070707070707030100000007075D
:10065000070000000000000007070700000000007E
:100660000007070700000001030707070707070740
:10067000070301000000000000000000000000006F
:10068000000000000000000000000000000000006A
:10069000000000000000000000000000000000005A
:1006A000000000000000000000000000000000004A
:1006B000000000000000000000000000000000003A
:1006C00000000009025B00030100A0FA0904000019
:1006D0000103010100092111010001224400070565
:1006E0008103080001090401000203000000092140
:1006F00011010001222200070582032000010705E5
:100700000303200001090402000103000000092185
:1007100011010001226D0007058403200001120170
:100720000002000000085346010001000102000120
:100730000C0343006F0072006E00650000001003A0
:1007400066006F006F007300740061006E000000AF
:10075000040309042B0014001A00080015001700F8
:10076000E00004001600070009000A00E1001D0077
:100770001B00060019000500000000000000E30057
:10078000777C2C002A00130012000C0018001C00BB
:10079000340033000F000E000D000B00290038005C
:1007A0003700360010001100000000000000E600D5
:1007B000787C28002B001E001F0020002100220052
:1007C000E00000000000000000000000E100000068
:1007D0000000000000000000000000000000E30036
:1007E00001002C002A0027002600250024002300F9
:1007F000000000004F0052005100500000000000B7
:100800000000000000000000000000000000E60002
:10081000010028002B001E021F02200221022202DA
:10082000E00000000000000000000000E100000007
:100830000000000000000000000000000000E300D5
:1008400001002C002A00270226022502240223028E
:100850003500310030002F002E002D00350231020E
:1008600030022F022E022D02000000000000E600E0
:1008700001002800007C00000000000000000000D3
:1008800020782378257827780000000021782478C4
:100890002678287800000000000000000000E30037
:1008A00001002C000000000000000000000000001B
:1008B0000000000000000000000000000000000038
:1008C0000000000000000000000000000000E60042
:1008D000010028002223252628292A2C2D2F3032FA
:1008E000333536383A3B3D3E4042434547494A4C12
:1008F0004E5051535557595A5C5E60626466686940
:100900006B6D6F71737577797B7D7F818385878947
:100910008A8C8E90929496989A9C9E9FA1A3A5A74C
:10092000A8AAACAEAFB1B3B4B6B8B9BBBCBEBFC178
:10093000C2C3C5C6C7C9CACBCCCDCED0D1D2D2D303
:10094000D4D5D6D7D7D8D9D9DADADBDBDBDCDCDC17
:10095000DCDCDDDDDDDDDCDCDCDCDCDBDBDBDADADA
:10096000D9D9D8D7D7D6D5D4D3D2D2D1D0CECDCC51
:10097000CBCAC9C7C6C5C3C2C1BFBEBCBBB9B8B666
:10098000B4B3B1AFAEACAAA8A7A5A3A19F9E9C9AF1
:1009900098969492908E8C8A89878583817F7D7BBF
:1009A00079777573716F6D6B6968666462605E5CA0
:1009B0005A5957555351504E4C4A49474543424066
:1009C0003E3D3B3A3836353332302F2D2C2A2928FC
:1009D00026252322FFAA7F554000010101010101C4
:1009E00001010102020202020202020203030303E6
:1009F00003030303040404040404040505050505B6
:100A00000606060606070707070708080808090973
:100A100009090A0A0A0B0B0B0C0C0C0D0D0D0E0E1E
:100A20000E0F0F0F101011111112121313141415B1
:100A30001516161717181819191A1A1B1B1C1D1D25
:100A40001E1E1F202021222223242425262627287B
:100A500029292A2B2C2D2D2E2F30313232333435AB
:100A6000363738393A3B3C3D3E3F404142434445AE
:100A7000464748494A4C4D4E4F505153545556588D
:100A8000595A5B5D5E5F616264656668696B6C6D37
:100A90006F7072737577787A7B7D7E8082838587AD
:100AA000888A8C8E8F91939596989A9C9EA0A2A3EB
:100AB000A5A7A9ABADAFB1B3B5B7BABCBEC0C2C4F0
:100AC000C6C9CBCDCFD1D4D6D8DBDDDFE2E4E7E9B0
:100AD000EBEEF0F3F5F8FAFDFF00DA0281FFD9F151
:100AE000DB20A4A62EAF00A0C0D30000A1C8D30075
:100AF00000AED580A81F408D1420001E0F050004F5
:100B00007F3F1F643214643214783C1E1E140A05A1
:100B1000808182838485868788898A8B8C8D8E8F5D
:100B20009091929394A0A1A2A3A4A5A6A7A8A9AAD4
:100B3000ABACADAEAFB0B1B2B3B4C0C1C2C3C4C54B
:100B4000C6C7C8C9CACBCCCDCECFD0D1D2D3D400A2
:100B50003A002C206B007800556E64656600416495
:100B60006A757374005261697365004C6F776572C2
:100B70000044656661756C74004C617965723A2059
:100B80000000000000000000000000000000000065
:100B90000000000000000000000000000000000055
:100BA00000000000007E0F00D4FFFFFFC700000020
:100BB0007800000000000000002A2B280000000040
:100BC00000000000000000000000000029000000FC
:100BD000002C1E3420212224342627252E362D37A2
:100BE00038271E1F202122232425263333362E3773
:100BF000381F0405060708090A0B0C0D0E0F10110B
:100C000012131415161718191A1B1C1D2F31302317
:100C10002D350405060708090A0B0C0D0E0F1011DF
:100C200012131415161718191A1B1C1D2F313035E5
:100C30004C202020206162636465666768696A6B86
:100C40006C6D6E6F707172737475767778797A31B6
:100C5000323334353637383930524542545F2D3DC2
:100C60005B5D5C233B27602C2E2F2020200011246D
:100C70001FBECFEFDAE0DEBFCDBF27E0A0E1B2E0DC
:100C800001C01D92A734B207E1F712E0A0E0B1E085
:100C9000EAE7F7E602C005900D92A031B107D9F757
:100CA0000E942B260C9460330C940000982F929590
:100CB0009F7024E0911102C020E0982F892F869523
:100CC0008695811511F02E5F982F892F8695820FBA
:100CD000089580930007089580930107089521E007
:100CE00030E001C0220F8A95EAF780910107822B3C
:100CF0000E946C06089521E030E0A90102C0440F73
:100D0000551F8A95E2F7CA018095909101078923C2
:100D10000E946C060895292F983090F5863080F552
:100D200090E036E0239F800D911D1124282F27701D
:100D300041E001C0440F2A95EAF723E09695879594
:100D40002A95E1F7FC01EE0FFF1FE80FF91FE652AD
:100D5000F94F20E030E070E05191DF01CB01022E2D
:100D600002C0969587950A94E2F781708195852750
:100D7000842385278E932F5F3F4F2330310561F702
:100D80000895292F983078F5863068F590E036E0A0
:100D9000239F800D911D1124682F677023E0969585
:100DA00087952A95E1F7FC01EE0FFF1FE80FF91F69
:100DB000E652F94F40E050E080E0219130E0062E0D
:100DC00002C0369527950A94E2F721703327042E46
:100DD00001C0220F0A94EAF7822B4F5F5F4F433026
:100DE000510559F7089580E008959091010721E099
:100DF00030E0F90101C0EE0F8A95EAF7D90102C08F
:100E0000AA0FBB1F6A95E2F7EA2B01C0220F4A9591
:100E1000EAF7892F8E23E81305C0892F822B0E94C1
:100E20006C0608952095822F8923F9CF80910707BA
:100E300090910607981301C008958F5F8770FACFCD
:100E4000909102078095892380930207282F2770AD
:100E500021110DC0891759F09091040792FF07C026
:100E60008695869586950E947B06109202070895C6
:100E70008091FD0690910507892B5091FE06511532
:100E800091F090915301911521F09091030797FDF6
:100E90000BC096E024E132E040E0915048F441116B
:100EA0001092FE06852B08959EE12CE132E0F4CFEE
:100EB000F90161919F01611581F34F5FEECF982F8A
:100EC00090958091FD0689238093FD0608959C01ED
:100ED000803E910509F448C0D8F48133910509F4A6
:100EE0007DC048F48932910509F46DC08A9709F4F0
:100EF0007CC0C90108958933910551F1823891056B
:100F000039F1C597B1F78091030785FFF2CF29C06A
:100F1000843E910509F447C048F4823E910599F159
:100F2000833E9105A9F121EE30E0E3CF863E9105A5
:100F300009F444C0873E9105E1F68091030783FDE3
:100F400061C09091040791FF2BC024EE30E0D1CF17
:100F5000809103078370811152C08091040783FF41
:100F6000C8CF29E230E0C5CF8091030780FD33C0B0
:100F70009091040790FFBDCF23EE30E084FFB9CFFE
:100F800020E030E0B6CF8091030782FDF5CFB1CFEE
:100F90008091030782FD30C09091040790FD2FC01F
:100FA00084FFA7CFEDCF8091040781FFA2CF80916E
:100FB000030727EE30E084FDE3CF9BCF809103074A
:100FC00083FDF7CF96CF8091030785FD1EC08091EA
:100FD000040783FF8ECF29E330E08BCF8091030796
:100FE00086FF87CF2AE230E084CF8091030786FF17
:100FF00080CF21E330E07DCF22EE30E07ACF20EECB
:1010000030E077CF26EE30E074CF25E330E071CFCB
:101010009091030792FF10C041E0282F24712430E3
:1010200009F040E031E0282F2871283009F030E045
:10103000431711F02CE0822793FF10C041E0282FC6
:101040002471243109F040E031E0282F2871283143
:1010500009F030E0431711F02CE0822730910407AB
:1010600030FF10C051E0282F2171213009F050E0ED
:1010700041E0282F2871283009F040E0541711F082
:1010800029E0822731FF10C041E0282F2171213152
:1010900009F040E031E0282F2871283109F030E0D4
:1010A000431711F029E0822794FD877E08951F934E
:1010B000CF93DF930E946707EC01811522E5920729
:1010C00008F055C0811540E5940708F0D1C0803E76
:1010D000910520F58D3C910508F0A4C0883A910552
:1010E00070F4853A910508F09AC081309105D1F1EC
:1010F0000497813A9105B0F1C0E0D0E033C0885A3E
:1011000091094B97C8F7C85AD0E0CC0FDD1FCD55D9
:10111000DE4F0990D881C02DD46424C0811550E4DD
:101120009507C0F4C11580E2D80708F0B7C0C83EE3
:10113000D105C0F0CE019A9581159F41E8F68D2F1B
:101140000E940808182FCE0199270E946707EC011A
:10115000D12B08C099270E946707CC27DF70C82BC6
:10116000D92BD06ACE01DF91CF911F91089580389D
:1011700042E59407C8F5803652E5950708F05BC054
:10118000C03482E5D807D0F4C03292E5D90708F020
:101190004BC08C2F8695869520E2829FC00111243A
:1011A000C37021E030E0A90102C0440F551FCA9569
:1011B000E2F7EA01C82BD92BDD68D4CF8C2F8695B6
:1011C0008695877050E2859FC0011124C37021E08D
:1011D00030E0A90102C0440F551FCA95E2F7EA01A9
:1011E000C82BD92BDC68BECF803C52E5950758F45C
:1011F0008F71C03AD245A0F590E0982F8827EC0176
:10120000C46FD06AAFCF805C9245809708F074CFEE
:10121000DC2FCC27CC27DF71C06FD06AA3CFA49777
:10122000D064A0CFD0659ECFCF71D0E0DC2FCC278B
:10123000C16FD06A97CF86958695877020E2829F8E
:10124000C0011124C37021E030E0A90102C0440FA5
:10125000551FCA95E2F7EA01C82BD92BDA6882CF6D
:101260000E940808C82FD0E0DC2FCC27D0627ACFAC
:101270008F710E94080893E0CC0FDD1F9A95E1F76B
:10128000CC27DF70282F30E084FF04C050E1859F19
:1012900090011124C22BD32BD06964CF8D2F8F7175
:1012A0000E940808182FCE0199270E946707EC01B9
:1012B000D12BDCCF80E00895F894E82FE295EF7011
:1012C000F0E041A18F7021E030E0B90102C0660F6B
:1012D000771F8A95E2F7CB01962F9095942391A3DF
:1012E00092A1892B82A3789408950895AF92BF921A
:1012F000CF92DF92FF920F931F93CF93DF93F62E3F
:10130000E901433308F042E3E42FF0E0E752F64FFF
:10131000F11010C0E491BE2E2E2F2983E883BA82EB
:10132000DF91CF911F910F91FF90DF90CF90BF90F1
:10133000AF900895C82ED12CAF2CB12C3491232F0F
:1013400046E0849F80011124EFEFF0E0C801BF0167
:101350000E945231CC0CDD1C45E5469FC001479FE1
:10136000900D1124C81AD90A8C2D880FC80ECF01F0
:101370008A199B095C013A9DC0013B9D900D112487
:10138000B92EFC9CD0011124AB2FBB27AF014A1B07
:101390005B0BDA013A9FA0013B9F500D1124DF0146
:1013A000AC19B1096D01FC9CD001FD9CB00D11245C
:1013B000AB2FBB27EA1BFB0B3E9FD0013F9FB00D1D
:1013C0001124EB2F63307105C1F00C3F134058F42A
:1013D00061307105B1F06230710509F09ECFE22FE6
:1013E000292FBB2E9ACF6430710571F066307105DC
:1013F00009F493CFE92FB52E90CF292FB32EE52FE7
:101400008CCFE22F252F89CFE92FB22E2B2F85CF1E
:101410008091F506843060F4837084608093F506D3
:101420008091F806833318F082E38093F8060895DC
:101430008C3AB0F38370886AF1CFE2EFF6E0118264
:101440008281846082830895FA01811511F00995E3
:101450000895FB01FCCF8091AC06811559F0E09115
:10146000D006F091D106309729F00190F081E02D5F
:101470000995089580E00895A3E0B0E0E2E4FAE081
:101480000C9476319C0180916402909165028217E0
:101490009307A1F03093650220936402E091D00697
:1014A000F091D106309751F083E089833B832A8302
:1014B0000084F185E02DCE01019609952396E2E0A6
:1014C0000C949231A3E0B0E0E8E6FAE00C947631B7
:1014D0009C01809162029091630282179307A1F0B0
:1014E0003093630220936202E091D006F091D1061E
:1014F000309751F084E089833B832A830084F1850F
:10150000E02DCE01019609952396E2E00C949231EC
:1015100090915301911112C0A4E1B2E0EFEF90E07D
:101520002D91821751F0EF3F19F4211101C0E92FDD
:101530009F5F9630A9F7EF3FC9F408959091030794
:1015400097FFEACFE82FE695E695E695803FA8F766
:10155000F0E0E65EFD4F877021E030E001C0220F31
:101560008A95EAF78281822B828308950E2E000CE1
:10157000FF0BEE5EFD4FF8CF90915301911521F0D6
:101580009091030797FD0CC0E4E1F2E0919189137B
:1015900002C0DF011E9252E0EA31F507B9F7089563
:1015A000E82FE695E695E695803FC8F7F0E0E65E21
:1015B000FD4F877021E030E0A90102C0440F551FA4
:1015C0008A95E2F7CA0180959281892382830895E2
:1015D0002FB7F89460918C0670918D0680918E06DD
:1015E00090918F062FBF0895CF92DF92EF92FF92D6
:1015F0008091AC06811559F00E94E80A6B017C01CC
:10160000C701B601FF90EF90DF90CF9008950E9440
:10161000E80AC090A806D090A906E090AA06F0902B
:10162000AB06C60ED71EE81EF91EEACF87E797E77E
:10163000909301088093000888E19AE00FB6F8942F
:10164000A895809360000FBE90936000FFCF8091BB
:10165000610208950895FC019B01809157029091C9
:1016600058028617970740F0672B29F48091E8000D
:101670008E778093E800C90140E0009741F4411162
:1016800006C08091E80082FF2FC080E0089520917D
:1016900077062115A9F12530A9F12091E80023FD55
:1016A0002DC02091E80022FDECCF2091E80020FF22
:1016B000E4CF3091F3002091F200009719F0283028
:1016C000310558F041E02830310509F040E0209123
:1016D000E8002E772093E800D0CF41914093F100AD
:1016E00001972F5F3F4FE9CF80917706811541F039
:1016F000853041F08091E80083FFC3CF81E00895F9
:1017000082E0089583E008958091510287FF13C01D
:101710008091E80082FF06C08091E8008B7780937B
:10172000E8000895809177068111F2CF08958091A5
:1017300077068115D9F38091E80080FFF8CF80917A
:10174000E8008E77ECCF2091E4003091E50095E63B
:10175000A9012091EC00822F817020FF06C08091AA
:10176000E80080FF06C080E008952091E80022FD97
:101770001AC080917706811589F0853089F08091B3
:10178000EB0085FD0FC02091E4003091E500421789
:101790005307F9F29A95E1F684E0089582E00895FE
:1017A00083E0089581E00895E8EDF0E080818E7F88
:1017B00080831092E2001092DA001092E100A0EE15
:1017C000B0E08C9181608C9380818F77808319BC8D
:1017D000A7EDB0E08C918E7F8C9380818F7E80838B
:1017E000109250020895FC01AC014C5F5F4F8FEFE7
:1017F00061E39191892728E030E0982F990F87FFC6
:1018000009C0892F862721503040B9F7E417F50722
:1018100081F70895892FF7CF982F9093E9008917C2
:1018200071F07091EC002091ED005091F00021FDDD
:1018300009C09F5F973089F78093E9000895762F5C
:10184000242F50E03091EB003E7F3093EB0030913D
:10185000ED003D7F3093ED003091EB00316030932F
:10186000EB007093EC002093ED005093F00020917A
:10187000EE0027FDDECF0895A0E0B0E0E2E4FCE05A
:101880000C947031C8EDD0E088818F7E8883E7EDBD
:10189000F0E080818160808384E082BF81E080937A
:1018A000500288818E7F888302EE10E0F80110825A
:1018B0001092DA0081EEC82ED12CF60110828881B8
:1018C0008F77888388818068888388818F7D8883EB
:1018D00019BC1092770610924F02109225041092B4
:1018E0004E0290EEE92EF12CF70180818B7F8083F0
:1018F00088818160888342E060E080E00E940C0C77
:10190000F60180818E7F8083F801808181608083F1
:10191000808188608083F70180818E7F80838881C9
:1019200080618883CDB7DEB7E8E00C948C31E0911C
:1019300007079091060727E0E91302C080E00895A9
:10194000AE2FB0E02E9FF0011124E85FF84F3181F7
:10195000361306C03081381303C03581341304C0F8
:10196000FD013196E770E8CF81E0089540911301C1
:101970008091F50680FF24C02091120130E0C9015A
:10198000880F991F820F931F89589C4F539A6BB1F0
:10199000677F7BB17860EFB7F89450E09A01220F2F
:1019A000331F240F351F280F391F28173907E9F473
:1019B000EFBF8FE594E00197F1F700C000000895B4
:1019C0008091140190911501282F30E0F901EE0F5C
:1019D000FF1FE20FF31FE958FC4F891768F61182C9
:1019E000108212828F5F3396F8CFDC014D91CD01CA
:1019F00058E07BB9000000C047FF6BB9440F0000FE
:101A000000C000C000C06BB900C05A9591F7CDCF9F
:101A1000EF92FF921F93CF93DF93EC0110E0EE243F
:101A2000EA94F12C60911601161770F00E94B60C22
:101A30008C819A8190FF25C08F5F8C83DF91CF913D
:101A40001F91FF90EF90089580911401810F9927C5
:101A5000991F9C01220F331F280F391F29583C4F13
:101A600070E0C7010E94B731962F8C814091F80633
:101A70006091F706199F800D11240E9476091F5F5F
:101A8000D1CF8150DACFA0E0B0E0E9E4FDE00C94E2
:101A90006D31EC018A81BB24B39480FF02C0BB246A
:101AA000BA948C81A0901601811109C021E0B21274
:101AB00002C08FEF8A0D8093760381E08C83E12C46
:101AC000F12CEA14B8F00E94B60C90917603E1E094
:101AD000BE1251C0809116018150911519F08FEFFF
:101AE000890F91E0809376039C83CDB7DEB7EBE05E
:101AF0000C948931809114018E0D9F2D911D8C01C4
:101B0000000F111F080F191F09581C4FF8011182EF
:101B10001082128234E0C32ED12C912C8091760356
:101B2000890D873324F166E30E94A931892F082E9D
:101B3000001C00088E150F0489F44091F8062C2D26
:101B40002403A00111245595479555954795980173
:101B50006091F7068091F6060E9476099B0C81E061
:101B6000C81AD108D9F69FEFE91AF90AAACF87FF58
:101B7000DECF8A0DDCCF892F90E0019660911601AF
:101B800070E00E94B731982FADCF0F931F93CF9382
:101B9000DF93EC018C81811109C081E08C8310926C
:101BA000750392E090930601809305011091140152
:101BB00020911501812F90E0FC01EE0FFF1FE80F2F
:101BC000F91FE958FC4F821750F100E060911601AF
:101BD000061758F10E94B60C80910501909175038B
:101BE000980F9093750320910601280F209306010A
:101BF000121654F4209116012150330B092E001CAB
:101C000000089217030634F0819580930501813016
:101C100009F41C82DF91CF911F910F9108951182D9
:101C2000108212828F5F3396CECF202F30E070E08B
:101C3000C9010E94B731810F90E040917503FC010A
:101C4000EE0FFF1FE80FF91F042E001C00082417D9
:101C50003005ACF040910601042E001C000842172C
:101C600003066CF09F0129583C4F4091F8066091A3
:101C7000F7068091F6060E9476090F5FA7CFE95814
:101C8000FC4F118210821282F8CFA6E0B0E0EBE4A4
:101C9000FEE00C9470318D839E83AD81BE811496DD
:101CA000FC912F2F30E0D9010E9451339B01AC01F0
:101CB0000E941C336B017C0180E290E09C012F1B91
:101CC0003109F901A5E5B0E0A70196010E941C3396
:101CD00069837A838B839C839F01DF010E94D831C3
:101CE0009B010E94E0319B01AC012C0D3D1D4E1D5E
:101CF0005F1D69817A818B819C810E942F33022F25
:101D000030E00A3248F5A901440F551F420F531F16
:101D100055954795142F1095F12C85E5E82EE01A7E
:101D200080911601F81630F10E94B60CAD81BE818B
:101D300014969C9181E0911519F0903219F48FEF6F
:101D40008093040180910401890FED81FE818483D9
:101D50002696E8E00C948C3185E590E0821B930B8D
:101D6000AC01440F551F480F591F57FFD1CF4F5F8C
:101D70005F4FCECF8E2DF1FC802F409114014F0D7F
:101D80005527551F9A01220F331F240F351F29583D
:101D90003C4F412F6091F7060E947609F394C0CF23
:101DA0000F931F93CF93DF93EC0100E010E090912D
:101DB0001601091711056CF00E94B60C8C8190E099
:101DC0000196817099278C83DF91CF911F910F919C
:101DD000089580911401A801480F511D9A01220F06
:101DE000331F240F351F29583C4F4C816091F70653
:101DF0008091F6069695091711054CF4411549F0A6
:101E00004091F8060E9476090F5F1F4FD0CF411511
:101E1000B9F340E0F7CFE5EFF6E080818E7F808375
:101E20000E941D0AE2EFF6E08281816082830E94B7
:101E3000B60C08959091F50690FF11C09091140191
:101E400050911501292F30E0F901EE0FFF1FE20F2D
:101E5000F31FE958FC4F951718F00E94B60C08952F
:101E60008183608342839F5F3396F5CFA3E0B0E028
:101E7000ECE3FFE00C9474318C01809174038111C8
:101E80000AC09E012F5F3F4F42E36FEF0E94760929
:101E90008A8180937403F8016481613049F0623073
:101EA000D1F08091740340E0611531F040E015C03D
:101EB0006091740340E080E00E941A0FF801848171
:101EC00090E0019663E070E00E94B731848323962E
:101ED000E4E00C9490314091740380E060E0ECCF3A
:101EE000A3E0B0E0E6E7FFE00C9476319091F506D0
:101EF00090FF0AC09E012F5F3F4F0E9476094B81E1
:101F000069818A810E941A0F2396E2E00C94923133
:101F1000CF93DF93EC01EC81F0E0EC52F74F44916A
:101F2000E5EFF6E0628181810E94700F8C818F5F06
:101F30008C83DF91CF910895CF93DF93EC01E5EF90
:101F4000F6E0438162818C810E94700F8C818F5FEB
:101F50008C83DF91CF9108950F931F93CF93DF93DD
:101F60008B01EA0190917706943059F58093E9004E
:101F70008FEF9091E80095FD06C095ED9A95F1F7E9
:101F800000008A95B1F78091E80085FF1AC00E9491
:101F9000A30B811111C08091E80085FD06C08091DE
:101FA000E8008E778093E800F2CFF80181918F01ED
:101FB0008093F100219779F78091E8008E778093E4
:101FC000E800DF91CF911F910F910895CF93DF9398
:101FD000D82FC92F48E050E0682F792F81E00E9468
:101FE000AC0F88E0ED2FFC2FA9E5B2E001900D9237
:101FF0008A95E1F7DF91CF910895BC0140E250E06E
:1020000084E00E94AC0F0895BC0143E050E084E0FE
:102010000E94AC0F0895A0E0B0E0E1E1F0E10C9483
:102020006E31182F092FB62EA72E7A018091440207
:102030009AE0C92ED12C8A3018F0CC24C394D12C2C
:10204000C1E0D0E06B2D7A2D812F902FF7010995FB
:10205000811116C02196CC16DD0694F0CC9FC001EC
:10206000CD9F900D900D112420E030E045E34A957E
:10207000F1F700002F5F3F4F28173907B9F7E2CF7C
:10208000CDB7DEB7EAE00C948A319091040792FB59
:10209000222720F9281779F080FB92F99093040702
:1020A000609103077091040784E090E00E94E7329A
:1020B00082E00E94200708951F93CF93DF93962F0D
:1020C000122F632F8430D8F49830C8F44630B8F417
:1020D000C42FD0E0CC0FDD1F2CE0929FC00DD11D8E
:1020E000112490E6899FC00DD11D1124CE0189963F
:1020F0000E94C932612FCE018A960E94C932DF91B7
:10210000CF911F910895AF92BF92CF92DF92FF922D
:102110000F931F93CF93DF93A12CB12C00E06501A7
:1021200010E013C0FE01259135914F2D612F802FB6
:102130000E945C102296F39486E0F812F3CF86E0BA
:10214000C80ED11C1F5F183039F0E601CC0FDD1F1F
:10215000CC5AD84FF12CE6CF0F5F80E3A80EB11C0C
:102160000430E9F6DF91CF911F910F91FF90DF903E
:10217000CF90BF90AF900895CF93DF93C9EAD1E09D
:1021800060E0CE010E94C9322196C11584E0D807D3
:10219000B9F7DF91CF910895CF93C82F65E28111F0
:1021A00001C06FEF85E290E00E94C93265E0C11185
:1021B00001C06FEF86E290E00E94C93260E3C11176
:1021C00001C06FEF87E290E00E94C932CF9108957D
:1021D00080E00E94CC1060E088E290E00E94C9326A
:1021E0000E9483100E94BC1081E00E94CC100895D0
:1021F0000F931F93CF93DF93843030F5683020F531
:10220000463010F5C42FD0E0CC0FDD1F2CE0629FCC
:10221000C00DD11D112430E6839FC00DD11D1124A6
:10222000CE0189960E94A532082F10E0102F0027BA
:10223000CE018A960E94A5329801282BC901DF9110
:10224000CF911F910F91089580E090E0F8CF462F35
:10225000672F783038F4463028F4843018F40E9420
:10226000F810089580E090E00895A0E0B0E0EBE37E
:10227000F1E10C9471317C0100910107809100071C
:10228000082BC3E0D0E010E0C8010C2E02C09595E9
:1022900087950A94E2F780FD09C02197A8F7D12C11
:1022A0008D2DCDB7DEB7E7E00C948D31DC2EB70174
:1022B0008C2F0E9427110E945708019771F3F0CFCD
:1022C0000F931F93CF93FC018581008111818115AC
:1022D00091F0611581F0C8010E943511C82F682F57
:1022E000C8010E948B06B8018C2F0E942711CF9144
:1022F0001F910F910895C8010E94C106C82FF3CF06
:10230000CF93DF93D82FC92F0E9435116D2F7C2FCB
:102310000E9427110E945708DF91CF910895FC0178
:1023200084818115A1F0808191810E948011282FE4
:1023300092959F70963099F060F4925F9F70923002
:1023400030F4203FB1F038F481E0283E38F080E0EE
:1023500008959A5FF3CF81E0243FC9F7089591E093
:10236000213F09F090E081E0283E08F080E0892BD1
:10237000089581E0089585E290E00E94A5328532BB
:1023800089F486E290E00E94A532853059F487E214
:1023900090E00E94A53291E0803309F090E0892F0F
:1023A0008170089580E0FCCF80915301811559F12F
:1023B0008091030787FF27C00E94380780931B0284
:1023C00040E250E060EB76E08AE192E00E948F32DA
:1023D000892BC1F080E2EAE1F2E0A0EBB6E00190E7
:1023E0000D928A95E1F7E091D006F091D1063097F1
:1023F00049F086E080931A020480F581E02D8AE19D
:1024000092E0099508950E9438078093120248E0EF
:1024100050E062ED76E082E192E00E948F32892BFB
:1024200089F388E0E2E1F2E0A2EDB6E001900D92DE
:102430008A95E1F7E091D006F091D106309711F33B
:102440000280F381E02D82E192E0DBCFCF93C82FB1
:102450008115D9F08CEF8C0F813AA8F5809153014A
:10246000811521F08091030787FD11C0E4E1F2E0BE
:102470008AE192E02191C21701F18E179F07D1F7EF
:102480008C2F0E94880A0E94D411CF910895EC2FBE
:10249000E695E695E695F0E0E65EFD4F828190E0F8
:1024A0004C2F477021E030E002C0220F331F4A95C5
:1024B000E2F782239323892B19F38C2F0E94BC0A05
:1024C0000E94D411DDCF80E28C0F883068F4C77091
:1024D00081E090E001C0880FCA95EAF7C091FD063F
:1024E000C82BC093FD06CFCF8BE58C0F833038F41B
:1024F0002C2F2452330BC9010E943C0AC6CFC85A64
:10250000CB3118F6EC2FF0E0EE0FFF1FE752FE4F35
:10251000808191810E94620AB8CF811539F19CEFC8
:10252000980F913A28F40E94BC0A0E94D411089591
:1025300090E2980F983050F4877091E001C0990FA5
:102540008A95EAF7892F0E945F07EFCF9BE5980FE6
:10255000933028F480E090E00E943C0A0895885A65
:102560008B3120F480E090E00E94620A08950F937E
:102570001F93CF93C82F00E510E0893311F000E0DE
:1025800010E08C2F0E9426120115110539F48C2FB2
:102590000E948D12CF911F910F9108958FE99FE0B6
:1025A0000197F1F700C0000001501109EDCF81152E
:1025B00039F09091FD06892B8093FD060E94D4117D
:1025C0000895811521F00E945F070E94D41108959B
:1025D0001092FD06809153018115C1F0809103078F
:1025E00087FF14C0ECE1F2E08EE1DF011D928A95D5
:1025F000E9F780E090E00E943C0A80E090E00E94D1
:10260000620A109205070E94D4110895E4E1F2E0F5
:1026100086E0EBCF0E94E8122FEF84E39CE021508C
:1026200080409040E1F700C0000088E19AE00FB6DA
:10263000F894A895809360000FBE90936000FFCF40
:10264000AAE2B0E0E6E2F3E10C94753181E592E0B4
:10265000FC0101962091F100208322E08935920748
:10266000B9F780915202893009F456C0C8F482301B
:1026700009F4B3C0833009F482C0813071F18091D4
:10268000E80083FFE7C080915102909152029A3096
:1026900008F0E0C0E92FF0E0EE59FC4C0C94CB318F
:1026A0008A3009F489C08B3051F780915102813210
:1026B00031F78091550290915602892B01F7809154
:1026C000E800877F8093E8000E94840B809153028A
:1026D000809353010E94E812D2CF80915102813A37
:1026E00071F68091E800877F8093E8008091550221
:1026F00090915602892B61F060E080E090E070E0FC
:102700000E942B0B8091E8008B778093E800B7CF75
:1027100068E089E592E0F3CF80915102813209F0BF
:10272000AECF80915502909156028D7F892B09F092
:10273000A6CF8091E800877F8093E8008091E80031
:1027400082FF18C09091F3008091F200029731F45B
:102750008091F100813011F0863021F48091F100F8
:10276000809361028091E8008B778093E8000E945B
:10277000840B85CF809177068111E0CF80CF809147
:102780005102813A09F07BCF809155029091560217
:10279000892B09F074CF8091E800877F8093E8004F
:1027A0008091E80080FFFCCF809153018093F1007D
:1027B0008091E8008E77D9CF80915102813209F063
:1027C0005ECF8091E800877F8093E8000E94840BB1
:1027D0008091540280934D0252CF80915102813AF0
:1027E00009F04DCF8091E800877F8093E8008091C9
:1027F000E80080FFFCCF80914D02D8CF803889F06F
:10280000823841F5809155028F70873018F580939A
:10281000E9008091EB0085FB882780F91092E900A0
:1028200006C080912504880F90914E02892B9091CB
:10283000E800977F9093E8008093F1001092F100F8
:102840008091E8008E7723C0811116C080915302D9
:10285000813011F18091E80083FF0AC08091E80087
:10286000877F8093E8008091EB0080628093EB008B
:10287000AA96E3E00C949131823061F78091530283
:10288000811589F01092E9008091E800877F80939C
:10289000E8000E94840BDECF81E0933009F080E0F5
:1028A00080932504EFCF809155028F702FEF280F72
:1028B000263080F68093E9002091EB0020FFE2CFE4
:1028C000933031F48091EB0080628093EB00DACF9B
:1028D0009091EB0090619093EB0021E030E0A90132
:1028E00002C0440F551F8A95E2F74093EA00109208
:1028F000EA008091EB008860E8CF8111ABCF1091A6
:1029000053021F778091E3008078812B8093E3004E
:102910008091E800877F8093E8000E94840B80917B
:10292000E80080FFFCCF8091E30080688093E300A3
:1029300083E0111101C082E0809377068BCF80582D
:10294000823008F087CF80915302909154028C3DE1
:1029500053E0950799F583E08A838AE289834FB72C
:10296000F894DE01139620E03EE051E2E32FF0E020
:1029700050935700849120FF03C082958F703F5F72
:102980008F708A30C8F0895C90E08D939D932F5FA3
:10299000243161F74FBF8091E800877F8093E80082
:1029A0006AE270E0CE0101960E942B0B8091E80054
:1029B0008B778093E8004ECF805DE6CF292F3327B9
:1029C0002330310509F44DC078F52130310509F483
:1029D0007CC08BE590E0E3ECF6E02230310509F0B5
:1029E00039CF2091E800277F2093E80020915702FB
:1029F000309158028217930708F49C0140E021159A
:102A0000310509F067C0411165C08091E80082FD81
:102A1000CDCF80917706811549F2853039F28091CA
:102A2000E80083FFF2CFC2CF809155029091560209
:102A300021323105D9F12232310509F00BCF833033
:102A4000910508F007CFFC01EE0FFF1FE85AFE4F7B
:102A50000190F081E02D8B5A9E4FDC018C9190E02B
:102A600011C09C013327813089F022303105B1F04B
:102A7000232B09F0EFCEE0E5F7E0E4918E2F90E014
:102A8000E0E5F7E0009709F4E5CEABCFEEE3F7E041
:102A9000E4918E2F90E0EEE3F7E0F4CFE0E3F7E08F
:102AA000E4918E2F90E0E0E3F7E0ECCF83309105E6
:102AB00008F0D0CEFC01EE0FFF1FE25AFE4F01904E
:102AC000F081E02D89E090E08CCF82E190E0EEE1B2
:102AD000F7E087CF80917706811509F467CF8530BD
:102AE00009F464CF8091E80083FD60CF8091E80015
:102AF00082FD8BCF8091E80080FF81CF9091F30021
:102B00008091F2002115310519F08830910550F0BF
:102B100041E0089709F040E08091E8008E778093CB
:102B2000E8006DCF44914093F10031962150310976
:102B30000196E8CF803809F08DCE8091E800877F3C
:102B40008093E80080914F028093F10079CE81114B
:102B500081CE10915302123008F07CCE8091E800B3
:102B6000877F8093E80010934F020E94840B111519
:102B7000D1F084E08093770642E061EC81E00E942E
:102B80000C0C42E261EC84E00E940C0C42E261EC2D
:102B900082E00E940C0C42E260EC83E00E940C0C8C
:102BA0008091770657CE8091E30087FDE2CF81E0E8
:102BB000E1CFA0E0B0E0EFEDF5E10C9470318901D8
:102BC000D42FC52F6B017C010E94080AA8016D2F2C
:102BD0007C2F88E090E00E94DB3298014D2F5C2F23
:102BE000B601C70100E20E940232622F84E290E047
:102BF0000E94C932CDB7DEB7E8E00C948C31E5EF26
:102C0000F6E085E0808311828FEF828382E3838305
:102C10001482A2EFB6E012968C91129783601296FE
:102C20008C93758125E030E04FEF52E360E08681C0
:102C300097810E94D91508958091F906833018F480
:102C40008F5F8093F9062091F5063091F60640914A
:102C5000F7065091F8066091F9067091FA06809196
:102C6000FB069091FC060E94D91508958091F90603
:102C7000811519F081508093F9062091F506309165
:102C8000F6064091F7065091F8066091F9067091AA
:102C9000FA068091FB069091FC060E94D9150895D2
:102CA000A3E0B0E0E6E5F6E10C946F31082FE62EE4
:102CB000F42EC22E9091F50690FF41C03091F60699
:102CC000381308C08091F706861304C08091F80677
:102CD000841729F08091F40682608093F406E92F2E
:102CE000E695E695AE2FB0E0AC59BE4F8C9180933F
:102CF000F2069C7F943039F59E012F5F3F4F4F2D98
:102D00006E2D802F0E9476094B8169818A810E94F5
:102D10001A0F302F3093F606E092F706F092F8067D
:102D2000C11469F02091F5066091F9067091FA06D8
:102D3000A7018091FB069091FC060E94D91523966D
:102D4000E9E00C948B31823019F4F090F806E1CF71
:102D5000863001F38930F1F28931D9F6E9518E2FAD
:102D60008170B82EE695F0E0EC52F64F1491D12C1C
:102D700060911601D61618F00E94B60CCACFD19EEB
:102D8000C001112470E00E945231802FB11013C095
:102D9000860F409114014D0D5527551F9A01220FA2
:102DA000331F240F351F29583C4F4F2D6E2D0E9485
:102DB0007609D394DDCF861BECCFE5EFF6E0818179
:102DC00021E043816281885F0E9450160895E5EFFB
:102DD000F6E0818121E04381628188500E94501693
:102DE0000895E5EFF6E0628121E1620F08F46FEFEC
:102DF00021E0438181810E9450160895E5EFF6E0BD
:102E0000628121E1621B08F460E021E0438181815D
:102E10000E9450160895E5EFF6E0438121E1420F4C
:102E200008F44FEF21E0628181810E9450160895DD
:102E3000E5EFF6E0438121E1421B08F440E021E0A8
:102E4000628181810E9450160895A8E0B0E0EBE213
:102E5000F7E10C94763166EE7EEF80E090E00E9420
:102E6000E73260E082E090E00E94C93281E0809326
:102E7000000761E083E090E00E94C93260E074E105
:102E800084E090E00E94E73260E086E090E00E94FB
:102E9000C9326FEF87E090E00E94C93240E050E015
:102EA000BA0188E090E00E94DB3260E084E290E0CA
:102EB0000E94C93260E087E190E00E94C93260E080
:102EC0008CE090E00E94C93260E08DE090E00E94CA
:102ED000C93219821A821B821C821D821E821F82A5
:102EE000188648E050E068E170E0CE0101960E944B
:102EF000B93240E050E0BA0180E290E00E94DB325B
:102F000080E00E94CC100E94E81040E050E0BA013E
:102F10008FE090E00E94DB3240E050E0BA0183E1B4
:102F200090E00E94DB322896E2E00C949231A4E01B
:102F3000B0E0EDE9F7E10C94753140917C065091D9
:102F40007D0660917E0670917F062FB7F894809180
:102F50008C0690918D06A0918E06B0918F062FBFA2
:102F6000841B950BA60BB70B11E084369105A105C8
:102F7000B10578F10E94F40ADC01CB010296A11D93
:102F8000B11D89839A83AB83BC8380914401909166
:102F900045018057994F20914301422F50E0253041
:102FA00010F044E050E0BE016F5F7F4F0E949C3202
:102FB00083E090E00E94DE30182F811551F00E94CE
:102FC000E80A60937C0670937D0680937E0690935A
:102FD0007F06812F2496E3E00C949131A0E0B0E0CD
:102FE000E4EFF7E10C947031E82FEB01B901D8015F
:102FF000C880D980EA80FB808FB7F89400918C0656
:1030000010918D0620918E0630918F068FBF0C197E
:103010001D092E093F09043611052105310510F45B
:10302000411511F10E2F0E2E000C110B88E0E80255
:10303000F0011124E55DFE4F818192818057994F07
:103040002081422F50E0A217B10508F4AD010E9483
:103050009C32C8010E94DE30811539F00E94E80AD6
:10306000688379838A839B8381E0CDB7DEB7E8E00C
:103070000C948C310F931F93CF93DF93D82FC92FCC
:1030800044E050E065E976E00E948F3241E0892B10
:1030900009F440E004E010E02D2F3C2F60E876E0DA
:1030A00082E00E94EE17DF91CF911F910F9108955A
:1030B000ABE0B0E0EEE5F8E10C94743128E0E5EF28
:1030C000F6E0CE010196DC0101900D922A95E1F720
:1030D0003091F2062091F3065091F40639872A8741
:1030E0005B8741E09C01511101C040E00BE010E022
:1030F00068E776E084E00E94EE1781111092F406F2
:103100002B96E4E00C949031EF92FF921F93CF93B3
:10311000DF9300D000D00F92CDB7DEB77B0180E007
:1031200090E00E94DE30182F811509F46DC0809167
:103130002E01482F50E0811511F041E050E06091E0
:103140002F01709130016057794FCE0105960E9492
:103150009C32409188065091890660918A06709150
:103160008B062FB7F89480918C0690918D06A091D4
:103170008E06B0918F062FBF841B950BA60BB70B45
:1031800084369105A105B10538F481E996E00E94E5
:10319000F30B9D818917C1F181E090E00E94DE3040
:1031A000811509F43FC080913601482F50E08530E9
:1031B00010F044E050E060913701709138016057A1
:1031C000794FCE0101960E949C3281E996E00E94DF
:1031D000F30B9D81891326C00E94E80A609388063C
:1031E0007093890680938A0690938B0689819A81D1
:1031F000AB81BC818093840690938506A09386065C
:10320000B093870681E00FC080919106909192065D
:10321000A0919306B091940689839A83AB83BC8373
:103220001111E4CF80E040918406509185066091B1
:10323000860670918706F70140835183628373830A
:103240000F900F900F900F900F90DF91CF911F91E3
:10325000FF90EF900895A0E0B0E0E1E3F9E10C9475
:103260006831FC016280448081E08483E4EDF8E011
:103270007490E3E5F9E0E491C091F806C695C15871
:10328000D0E0CC0FDD1FCD2FDD27812C75E0972EF0
:10329000AA24AA94B12C55245A94E719EE2EF12CA5
:1032A00080911601881638F00E94B60CCDB7DEB7B3
:1032B000E0E10C948431C82CD12C83E0681658F4DA
:1032C000989CF0011124EA59FD4F8091F606808305
:1032D0008091F7068183411023C09C9CF0019D9C46
:1032E000F00D1124EA59FD4F1382128280911401CE
:1032F0008C0D9D2D911D9C01220F331F280F391F0E
:1033000029583C4F9C9CF0019D9CF00D1124EA59DA
:10331000FD4F4281618180810E9476098394C0CFF4
:103320009C9C80019D9C100D11240A591D4FF80191
:1033300083818115F1F081508383589EC00111244F
:10334000648170E00E945231FB01FF27EC52F74F7D
:103350008491E82FE7195E9EC0011124B7010E94F5
:1033600052318091F806689FB0011124F8017283F0
:10337000BDCF0E946932B5010E94B7318C179D07FD
:103380000CF0B4CFF3E06F1698F00E946932B501EB
:103390000E94B731F80180830E9469322091F706BC
:1033A0002695622F70E00E94B731280FF801218323
:1033B0009C9CF0019D9CF00D1124EA59FD4F128256
:1033C0008091F806893C58F088EC9C9CF0019D9C0B
:1033D000F00D1124EA59FD4F8483838387CF843114
:1033E000A0F784E1F2CFA0E0B0E0E9EFF9E10C94BE
:1033F00070316C017B0164E670E088E70E949F2ECB
:103400008C01E601EC0CFD1C17FD0BC0FE01849144
:1034100064E670E00E940E2F8C012196CE15DF0528
:1034200099F70E94932F81E00115110509F080E0C2
:10343000CDB7DEB7E8E00C948C3180916D06811534
:1034400069F080916A06811549F062E070E081E8D8
:1034500091E00E94F319811110926A0608958091FB
:103460006D068115F9F00E94E80ADC01CB01805A53
:103470009541AF4FBF4F8093660690936706A09328
:103480006806B093690680916A0681110BC062E0FC
:1034900070E08FE791E00E94F319811519F081E047
:1034A00080936A060895CF93DF93682F81E06A3096
:1034B00019F06D3031F480E00E94D31ADF91CF9182
:1034C0000895809138049091390426E0FC01A7E426
:1034D000B2E001900D922A95E1F7603E08F458C0E1
:1034E00026E0FC0111922A95E9F7C0913804D091A9
:1034F000390446E050E0BE0187E492E00E948F323A
:103500009E0122563440892B41F1C90145E0969530
:1035100087954A95E1F741E050E0BA0102C0660F95
:10352000771F8A95E2F7CB0160916406709165067A
:10353000862B972BB9016B5F7F4FE5E076956795FA
:10354000EA95E1F702C0440F551F6A95E2F7842B14
:10355000952B90936506809364062A5F3F4F4091B8
:103560003A04642F70E0C9010E945231481B463072
:1035700010F4240F311D211572E0370710F020E000
:1035800030E02E593B4F309339042093380496CFC6
:10359000F6E06F9FB00111246D577E4F46E050E07A
:1035A0000E947932A2CFCF93382FE0913804F09166
:1035B0003904E256F44020913A04622F70E0CF01C2
:1035C0000E945231281B822F311561F066E00E9463
:1035D0009D31C82FC15010F4CF91089580E20E9410
:1035E000531AF8CF8E0F9F2F911D811522E092075D
:1035F00010F080E090E08E599B4F909339048093B7
:103600003804EACFCF93DF93EC01FE01849181115E
:1036100003C0DF91CF9108950E94531A2196F5CFF0
:103620000E94021B81E00E94D31A08951F921FB6C8
:103630001F9211248F939F93AF93BF938091240483
:10364000811113C080918C0690918D06A0918E06F9
:10365000B0918F064196A11DB11D80938C06909369
:103660008D06A0938E06B0938F06BF91AF919F9168
:103670008F911F901FBE1F9018952FB7F8948091BF
:103680008C0690918D06A0918E06B0918F062FBF6B
:103690000895CF93DF938091AC06811529F00E94A5
:1036A0003D1BDF91CF9108950E94F40AEB01862F14
:1036B0009D2FF7CF6091F5066695669570E04BE01B
:1036C00050E087E091E00E948232892B19F481E07A
:1036D0008093F3060E94491B909333048093320435
:1036E0008091F40684608093F40608959091F50625
:1036F00090FF42C0811509F440C08B3208F03FC0F2
:103700008F73282F220F220F8091F5068370282BAC
:103710002093F5068091F40681608093F40661158C
:1037200081F03091F6064091F7065091F8066091CD
:10373000F9067091FA068091FB069091FC060E94B2
:10374000D9156091F5066695669570E04BE050E0FE
:1037500087E091E00E948232892B99F00E941D0A35
:1037600081E08093350420E04091F8066091F706EF
:103770008091F6060E945016089581E0C2CF8AE239
:10378000C0CF0E945A1BECCF8091F5068695869596
:103790008F5F8B3208F081E061E00E94761B089514
:1037A0008091F506869586958A9509F48AE261E00E
:1037B0000E94761B08959091F50690FF09C096959A
:1037C0009695981728F0961718F40E94C41B089530
:1037D00061E00E94761B08959C014FB7F894809198
:1037E0008C0690918D06A0918E06B0918F064FBFEA
:1037F000821B930B0895FF920F931F93CF93DF9338
:10380000C62FD42F122F8115A9F06093F0060E94C5
:103810003D1B9093460280934502C77081E001C032
:10382000880FCA95EAF70E94D712CDB7DEB7E5E058
:103830000C948F318091F006681330C0809145025E
:10384000909146020E94EC1B883C910538F500E2FD
:103850000D0FCD17A9F0C770FF24F3948F2D01C071
:10386000880FCA95EAF70E94E112083048F48D2FBC
:10387000877001C0FF0C8A95EAF78F2D0E94D7123E
:10388000812F0E94B712083080F6D77081E001C006
:10389000880FDA95EAF70E94E112C7CFC77081E07E
:1038A00001C0880FCA95EAF7F6CFA9E0B0E0EBE5D2
:1038B000FCE10C9466317C01FC018481811509F4E2
:1038C000A4C061E0C7010E9460118C01F70135813D
:1038D000311509F48EC597578038910508F034C129
:1038E000003108F082C08FEF93E00E94A532811171
:1038F0007CC049EAC42EDD24D394011148C0CE0116
:1039000001963C0188E0F30111928A95E9F756018E
:10391000FFEFAF1ABF0AC6010E94A53289831A823F
:10392000811509F462C0813009F073C086010E5F11
:103930001F4FC5010E94A5328A83811509F455C025
:103940009FEF980F933090F523E0C20ED11CC80171
:103950000E94A5328B83811509F447C01C82830124
:10396000F8012081211599F2213009F095C081815B
:10397000813009F050C05801F2E0AF0EB11CF801DF
:1039800082810E94B71285010F5F1F4FE9CFC114DA
:10399000F4E0DF0651F1C6010E94A53296012F5FC7
:1039A0003F4F69018111F3CF0150A7CF8430A1F4BB
:1039B00032E0C32ED12CC8010F5F1F4F0E94A532E9
:1039C000F301EC0DFD1D8083811579F08C3731F406
:1039D000FE01EC0DFD1D12826801C1CF3FEFC31A3D
:1039E000D30A67E0C616D10431F7809102078770C9
:1039F000811559F0F7018581811539F0809104070F
:103A000082FF03C082E00E9420072996E2E10C9425
:103A100082316501A4CF823049F45801F2E0AF0E43
:103A2000B11CF80182810E942612ADCF833049F487
:103A30005801F2E0AF0EB11CF80182810E948D1294
:103A4000A2CF843019F00F5F1F4F9ECF82810E5F8F
:103A50001F4F812C912C98012F5F3F4F8053990B62
:103A60008A30910560F0C401009709F48DCFEFE929
:103A7000FFE03197F1F700C000000197F5CFFAE0C1
:103A8000F89DA001F99D500D11244C01840E951E46
:103A9000F80181818901DFCFE22FF0E0EF54F44F8C
:103AA00034913987822F86958695869590E0FC0122
:103AB000EF55F44FE4912770F0E0022E02C0F59527
:103AC000E7950A94E2F7E1702E2E3324FC01EF56BD
:103AD000F44FE491F0E0022E02C0F595E7950A94C8
:103AE000E2F7E1704E2E5524FC01EF57F44FA490FD
:103AF000B12C02C0B594A7942A95E2F7A0FAAA24A3
:103B0000BB24A0F82114310419F081EE0E94261282
:103B10004114510419F086EE0E94261289850E94F4
:103B2000B7124114510419F086EE0E948D1221142F
:103B3000310419F081EE0E948D12AB2809F424CFD4
:103B40008CE20E94B71220CF81818093EF068081A2
:103B50008093EE0680E2809354011093ED0600936B
:103B6000EC06C80190528115904218F5F701868144
:103B7000803128F0F801FF27ED33F10568F110924C
:103B8000F006C8019057839708F05BC484E090E08A
:103B90000E94B3329093040780930307F801E15029
:103BA000F047E232F10508F044C0E459FC4C0C94B3
:103BB000CB31C801905481159041C0F2C8019A954B
:103BC00081159F41B8F2C801805A92458097B8F29A
:103BD0000D33110530F4F801EF5CF34FE491E093FD
:103BE0005401F801E851FC47E730F10540F6E2578F
:103BF000FC4C0C94CB3126E241EE61EE832F0E9407
:103C0000FB1BF3CE27E245EE65EEF8CF26E241EE50
:103C100060EEF4CF27E245EE64EEF0CF26E241EE0F
:103C200062EEECCF27E245EE66EEE8CF28E241E017
:103C3000EBCF8091030781608093030760910307B6
:103C40007091040784E090E00E94E7320E94E8123D
:103C5000CCCE80910407886080930407EFCF8091D9
:103C600003078260E9CF809103078460E5CF8091EC
:103C700003078860E1CF809104078160EDCF8091D8
:103C800004078260E9CF809103078061D5CF8091DE
:103C900003078062D1CF809103078064CDCF0E945B
:103CA000E812809103078068C7CF809103078C607A
:103CB000C3CF809104078360CFCF809103078E7FAD
:103CC000BBCF80910407877FC7CF809103078D7F8B
:103CD000B3CF809103078B7FAFCF80910307877F9E
:103CE000ABCF809104078E7FB7CF809104078D7F83
:103CF000B3CF809103078F7E9FCF809103078F7D85
:103D00009BCF809103078F7B97CF0E94E812809111
:103D100003078F7791CF80910307837F8DCF8091A9
:103D200004078C7F99CF80910307992782FF939591
:103D300090FB82F990FB83F97FCF80910407982F45
:103D4000909590FB80F990FB81F986CF90910307C5
:103D5000892F8F7B96FF80646FCF0E94E81290912D
:103D60000307892F97FB87F9805866CF61E08EE0C3
:103D700090E00E94C93262CF60E0F9CF90910307D2
:103D8000892F8F7E94FF806157CF90910307892FF1
:103D90008E7F90FF816050CF90910407892F877F9D
:103DA00093FF886059CF89E25DC38091F106811548
:103DB00021F085E30E94BC0A57C389E2FBCF8091C2
:103DC000F50680FF1EC0282F2E7F2093F506309128
:103DD000F6064091F7065091F8066091F906709149
:103DE000FA068091FB069091FC060E94D9150E946C
:103DF0001D0A8091F40681608093F4060E94B60C3F
:103E0000F4CD81608093F50661E0869586950E94E9
:103E1000761BEBCD40ED5BE164EC7BE10E94240A74
:103E2000E4CD44EC5BE160ED7BE1F8CF47EE56E199
:103E30006DED76E1F3CF4DED56E167EE76E1EECF35
:103E40004EEF56E161EF76E1E9CF41EF56E16EEFDB
:103E500076E1E4CF48E157E16BE077E1DFCF4BE07B
:103E600057E168E177E1DACF46E356E16CE176E1CC
:103E7000D5CF4CE156E166E376E1D0CF61E081E059
:103E8000C6CF65E082E00E94DB1BAFCD68E086E034
:103E9000FACF6EE089E0F7CF64E18FE0F4CF67E11D
:103EA00085E1F1CF61E088E1B2CF62E289E1EBCF59
:103EB00061E083E2ACCF6AE285E2E5CF07376CE7E9
:103EC000160709F482C008378CE7180709F481C087
:103ED0003115A9F00A359CE7190709F4A4C008F0C8
:103EE0007CC00130FCE71F0709F49BC003302CE7BE
:103EF000120709F490C001151C4709F47FC0F701AF
:103F00008581C080D180811509F491C0C6010E94CD
:103F10003511182F682FC6010E948B06B601812F1C
:103F20000E9427110E9457088C01F701B580A680D6
:103F3000A2942FE0A222809102078770811501F1DF
:103F4000CB2CB114F1F0812F807F803461F080E2BE
:103F5000800F8830A8F0812F807E803221F40230DB
:103F600078F0A11469F08091040782FF09C082E013
:103F70000E942007809102078770CC24C39481118E
:103F8000C12C812F82958F70883009F443C108F0CD
:103F900072C0843008F050C0F12FFF70DF2E8230E5
:103FA00008F47AC0107F103219F0D29480EFD82232
:103FB000011509F4A8C0013009F4F1C0B11409F4E5
:103FC000FDC0A11409F4BDC07DC081E00E947B0644
:103FD00032C282E03115D1F32CC20B356CE71607E3
:103FE00021F10C351C4709F08ACF80910407002489
:103FF00082FF0394802D0E94451081CF0E94E81219
:104000009FEFE4E3FCE09150E040F040E1F700C0B6
:1040100000000E94160B6FEF7FEF80E090E00E949F
:10402000E7320E940A1381E0E6CF80E0E4CFC601C8
:104030000E94C106182F72CF843009F4D0C0C11479
:10404000A9F08091020780FD11C0F70115828695C5
:10405000869586950E946F06C7010E94551C809127
:1040600002078695869586950E947B0660E0C701CB
:104070000E946011CACC893009F43BC18A5F8F70FD
:104080008230E8F6023F09F045C1812F8F71B110EF
:104090003EC10E946F06EBC0103118F0D29490EF31
:1040A000D922B114B9F0D11469F080E2800F8830C0
:1040B00010F0011109C08091FD068D298093FD0645
:1040C0000E94D411802F2FC0809105078D298093E5
:1040D0000507F6CF802F0E948D12D11409F4AFCFBF
:1040E00080E2800F883010F0011104C08D2D0E94F5
:1040F0005F0706C0D094809105078D218093050746
:104100000E94D4119CCF8091040782FD16C0B11487
:1041100069F0D11439F08091FD068D298093FD0658
:104120000E94D41180E00E94261289CF80E00E9474
:104130008D12D11409F483CFD9CFB114A1F0A110FD
:1041400004C08D2D0E94D7127ACF21E0A21277CF22
:104150008091FE069D2D9823D91609F470CF8D29E4
:104160008093FE066CCFA1106ACF8D2D0E94E112C4
:104170009091FE068D2D8923811529F08D2D809536
:1041800089238093FE068091FF069D2D982391152B
:1041900009F455CFD094D822D092FF0650CFB11455
:1041A00029F036E0A31608F04ACFCBCF65E0A6167B
:1041B00008F045CF8D2D0E94E11241CFA114D1F31B
:1041C000093349F48FEF97EEE3E081509040E040EF
:1041D000E1F700C00000802F0E948D1230CF812FA8
:1041E000869586958370811561F0813009F027CF1F
:1041F000C8019370B11002C080E090E00E94620A92
:104200001ECFC8019370B11002C080E090E00E9400
:104210003C0A15CF812F8370811134C0B11027C0A3
:10422000402F429546954770440F440F802F8F7062
:10423000042E01C0880F0A94EAF7202F207104FF92
:1042400007C02FE030E001C0220F4A95EAF7209521
:10425000169516951370123081F0133061F030917D
:104260000007113039F0822B83230E9469060E94D7
:104270002B0AE5CE832B822BF8CF822B909100075F
:104280008927F3CFB11451F110FFF1CF402F4295A0
:1042900046954770440F440F802F8F70042E01C045
:1042A000880F0A94EAF7202F207104FF07C02FE03F
:1042B00030E001C0220F4A95EAF720951695169531
:1042C0001370123089F0133069F03091010711300A
:1042D00041F0822B83230E946C06C9CF8230B0F656
:1042E000C6CF832B822BF7CF822B90910107892792
:1042F000F2CF1F70B11439F0812F0E946F06802F0A
:104300000E94D712B4CF802F0E94E112812F0E9409
:104310007B06ADCF70F4003FC9F0013F91F0B114BE
:1043200009F453C0A11409F44DC0802F0E94261235
:104330009ECF033FE9F0043F91F78091040782FD8F
:1043400023C0812F8F71B11411F3A3CEB11469F082
:10435000F5E0AF1608F08BCF1F7181E090E0012EE1
:1043600001C0880F0A94EAF7C0CF26E0A216F2CF68
:1043700080E0B11409F4AFCF1F7181E0012E01C0BC
:10438000880F0A94EAF7A7CFB11489F01F71812F23
:104390000E946F068091040782FF07C0812F880F5B
:1043A000880F880F836080930207812F72CE81E08F
:1043B0000E94200732E0A31608F459CF82E00E9441
:1043C000200755CF812F8F7164CEA11479F0093366
:1043D00049F46FEF87EE93E0615080409040E1F741
:1043E00000C00000802F0E948D1241CF812F8F715D
:1043F0008ECFFC01E851FC47E730F10508F4F7CB1C
:1044000006312CE7120709F4D0CC8091FD068272A8
:10441000F801E052F847E531F10508F04FCDEB56D1
:10442000FC4C0C94CB310737FCE71F0709F04BCD50
:1044300081E00E946F0643E062E081E00E94F506A1
:10444000D4CA06312CE7120771F78091FD068A7AEB
:1044500091E0811101C090E09093F106811509F47B
:10446000A2CC85E30E94880A0E94D411BECA809122
:104470004607803178F480914507811559F0E09125
:10448000070720910607309141074091400757E008
:104490002E1301C008956E2F70E05E9FF00111246D
:1044A000DF01A85FB84F14968C911497811561F1C4
:1044B00011968C911197831327C08C91841324C07B
:1044C00015968C91159781111FC012968D919C9114
:1044D000A0914207B09143078A1B9B0B883C910532
:1044E00098F4809146078F70806180934607E25F61
:1044F000F84F80818F708061808380E497E00E9414
:10450000551C0E9416070895FB013196E770C0CF35
:10451000ADE0B0E0EEE8F2E20C946A318C0186E0A6
:10452000F801DE01189601900D928A95E1F7F801E5
:10453000F580848190E4892E97E0992E609044075D
:10454000611018C0811599F0F11409F415C1C80162
:104550000E948F11811509F40FC187E0F801A0E4D2
:10456000B7E001900D928A95E1F70E943722FF246F
:10457000F39456C07080A280B380D09045072091FC
:10458000420730914307A501421B530BD11409F494
:10459000C3C0483C510508F079C0811541F38091B2
:1045A0004107C180E090460750E1E51608F059C088
:1045B000C81215C080914007871111C0F1104BC07F
:1045C0008E2D8F7080618093460780E497E00E9473
:1045D000551C80914607F8018683F12C21C0F1100B
:1045E0003AC040E06C2D872D0E94970C40E06C2D66
:1045F000872D0E94970CF82E8111EFCF8885998521
:104600000E948011292F22952F70903470F49F7092
:104610002230A0F09115B1F0F8019681903190F41C
:104620008F2D2D96EEE00C9486312A5F2F7022306C
:1046300068F0C8010E94551CFD2CF2CF911511F0B5
:10464000811571F3805E883058F3F3CF803F40F3DB
:10465000815F8330F9CF8091460781608093460760
:10466000BCCFC8123BC080914007871137C0F11002
:1046700035C0E682C8010E94551C87E0F801A0E41D
:10468000B7E001900D928A95E1F771CFE09046076F
:10469000F0E1EF1650F480E497E00E94551C87E0AB
:1046A000F40111928A95E9F798CF811509F45FCF4B
:1046B00090914107F8018181981310C080914007C3
:1046C00087110CC0F1100AC0E682C8010E94551C77
:1046D00087E0F40111928A95E9F749CFC8010E9459
:1046E0008F11811509F448C0F11409F445C0809177
:1046F0004607803208F431CF8091400790914107FE
:104700009A838983BC82AB826D821E82EF82CE0146
:1047100001960E94551C21CF483C510508F0BFCF9F
:10472000811509F424CFF11439F190914107818169
:10473000981318C080914007871114C080914607D4
:1047400080FD9BCF803108F498CF8683807F803FA7
:1047500009F490CF8681982F907F905F8F70892B7E
:10476000868388CFC8010E948F118111F6CE809177
:104770004607816080934607C8010E94551CF7CE0A
:10478000ABE1B0E0E6ECF3E20C9474314E8B5F8B5E
:10479000688F798F8A8F192F9B8F9111109205073F
:1047A0001D8A86E0FE017696DE011F9601900D922D
:1047B0008A95E1F70A8D011539F00B8B1C8B61E0AE
:1047C000CE010F960E9460110B8B1C8B87E0FE01BF
:1047D0003F96DE01189601900D928A95E1F7CE0181
:1047E00008960E948822811128C0209106073091E6
:1047F000070787E0FE013896DE01119601900D92C1
:104800008A95E1F78C858115C1F0822F90E00196A1
:104810008770992738171906D9F097E0929FD00131
:104820001124A85FB84FFE01319601900D929A9520
:10483000E1F7809306070E94160717E080910707AB
:1048400090910607891312C06B96E4E00C949031A6
:104850000E94E812109206071092070787E0E0E432
:10486000F7E0DF011D928A95E9F7E7CF189FC001B5
:104870001124885F984F0E948822811529F3809126
:10488000070790E001968770992780930707D6CF96
:10489000A6E0B0E0EEE4F4E20C9474310E943D1B1B
:1048A0008C018091AE069091AF068017910779F048
:1048B00019821A820E943D1BBC0149815A8180E005
:1048C00090E00E94C0231093AF060093AE06269698
:1048D000E4E00C949031A3E1B0E0E1E7F4E20C9461
:1048E0006931FE013C9688E0DF011D928A95E9F767
:1048F0008FE8E82E81E0F82E8F013F01AA24A394CF
:10490000B12C29E9822E21E0922EF70181917F01BD
:104910008F3F09F43EC0F894E82FE295EF70F0E085
:1049200021A18F70A50102C0440F551F8A95E2F79F
:10493000CA01922F982B91A392A18095892382A3DB
:10494000789400C0E3E9F1E031E0512C21912F3F50
:1049500079F0A22FA295AF70A05EB0E08C9190E0AC
:104960002F7002C0959587952A95E2F780FF88C041
:1049700080E0582A330F8E169F0641F7F701829187
:104980008F3F11F00E945C0950EA5A95F1F7D80167
:104990005C920F5F1F4FB3E9EB16B1E0FB0609F025
:1049A000B4CF48E050E0B30189E194E00E948F3237
:1049B0006C01892B41F088E0F301A9E1B4E001909A
:1049C0000D928A95E1F70091220410E00159194FE8
:1049D000C114D10409F456C081E0809343020E94BF
:1049E0003D1B90934202809341028091AC06FE01F0
:1049F00031967F01811509F49CC084E0DF011D928E
:104A00008A95E9F7809144028A3008F05DC044E855
:104A100058E1B701C8010E940B10811509F477C055
:104A20004AE358E1B701C8010E940B10811509F44F
:104A30006EC047E957E1B701C8010E940B1081150C
:104A400009F465C048E558E1B701C8010E940B10A0
:104A5000811509F45CC0109244028091210490E019
:104A600044E050E0B7018159994F0E948F3221E014
:104A700020934002892BE9F56396EFE00C94853191
:104A8000832F77CF80914302811509F4AECF8091B7
:104A90004102909142020E94EC1B059708F4A5CFB9
:104AA00044E050E069E174E0C8010E948F32892B34
:104AB00041F084E0E9E1F4E0D80101900D928A959B
:104AC000E1F71092430291CF80913E0290913F0214
:104AD0000E94EC1B843F914008F099CF80914002E6
:104AE000811551F284E0F70111928A95E9F710924D
:104AF0004002E0912104F0E0E159F94F89819A8167
:104B0000AB81BC8180839183A283B383B5CF809135
:104B100044028F3F39F40E943D1B90933F028093E3
:104B20003E02DCCF8F5F809344028A3008F495CF39
:104B3000F2CFC0902104D12C96012159394F69013F
:104B4000F80180819181A281B38180939106909335
:104B50009206A0939306B093940681E996E00E9492
:104B6000F30B809390068091950690919606A09104
:104B70009706B0919806F60180839183A283B38350
:104B80008090990690909A06A0909B06B0909C0603
:104B900080913A0290913B02A0913C02B0913D027B
:104BA00088169906AA06BB06B1F080923A02909246
:104BB0003B02A0923C02B0923D020E94E80A861A93
:104BC000970AA80AB90A8092A8069092A906A0920C
:104BD000AA06B092AB068BE0EDE9F6E0D7010190B2
:104BE0000D928A95E1F7F0909E06E0909F06D09096
:104BF000A0060091A6061091A7061092A70611150F
:104C000009F43ACF10FF0DC0898180FF1EC090913A
:104C1000F50691609093F50660E0869586950E9472
:104C2000761B11FF06C020E04D2D6E2D8F2D0E94AA
:104C3000501612FF04C0011559F00E945A1B13FFB1
:104C40001BCF81E08093350417CF0E940B0FE9CF73
:104C50000E941D0AF4CFCDB7DEB7AE970FB6F89419
:104C6000DEBF0FBECDBF85B7806885BF85B78068C2
:104C700085BF84B7877F84BF0FB6F894A8958091CD
:104C80006000886180936000109260000FBE80E831
:104C900090E00FB6F89480936100909361000FBE8E
:104CA0008AE599E090931102809310020E94D40B40
:104CB0000E943C0C8091E20084608093E200789432
:104CC00080917706811599F08091E9001091EC00B0
:104CD0008F70179511271795182B1092E900809166
:104CE000E80083FD0E9420131F701093E90082E00A
:104CF00084BD93E095BD9AEF97BD80936E001092AE
:104D0000A8061092A9061092AA061092AB060E945D
:104D1000BB11811102C00E94E8108091D80080610F
:104D20008093D8002AE12A95F1F700C08091D9003C
:104D3000182F117080FD04C00E94D40B10927706CA
:104D40001093AC061093AD0610931701111509F4DA
:104D500078C0109212018BE1809313010E94F02F12
:104D6000809117018091170191E08927880F880FA2
:104D70008093220494E0981B9093210484E90E947C
:104D80005C0986E60E945C0987E90E945C0986EC62
:104D90000E945C0903E911E0D8018D918D018F3FDC
:104DA00011F00E945C09B1E009391B07A9F788E0FE
:104DB000EFE6F6E0DF01482E1D924A94E9F7E9E1BB
:104DC000F4E0DF011D928A95E9F780E090E00E940F
:104DD000B332863E9E4F21F40E94BB11811102C066
:104DE0000E94251782E090E00E94A532809326045D
:104DF00084E090E00E94B33290930407809303070D
:104E00000E946B24EFEFF6E721E0E150F0402040F4
:104E1000E1F700C000000E946B24E091AD0611E0B4
:104E2000E127EE0FEE0FF0E0E159F94F808181FFAD
:104E30000EC06FEF7FEF80E090E00E94E7320E94AB
:104E4000160B8BE1809312018093130189CF83E0CD
:104E500090E00E94A5320E9469068091AC068127ED
:104E6000880F8093620680E880933A040E94992E0E
:104E70006BE070E080EF9AE00E94F319811509F46D
:104E80003FC08091620665E070E081FD3DC18BEE20
:104E90009AE00E94F319811599F16DE070E089EDB7
:104EA0009AE00E94F319811559F10E94E80ADC0189
:104EB000CB01805A9541AF4FBF4F809366069093C8
:104EC0006706A0936806B0936906E2E6F4E080E026
:104ED00092E0DF019C011D9221503040E1F7F093F8
:104EE0003904E09338048FEF9FEF90936506809329
:104EF000640681E080936D0680936A0610926306D3
:104F000080912304811190C080E090E00E94B33230
:104F1000863E9E4F21F40E94BB11811104C00E9465
:104F200025170E94FF1588E090E00E94AD326BA724
:104F30007CA78DA79EA784E290E00E94A532282F2F
:104F400030E040E050E060E070E080E090E000E2BF
:104F50000E94E7316BA47CA48DA49EA4230134019C
:104F6000812C912C540149A25AA26BA27CA28DA241
:104F70009EA2AFA2B8A67BA42729352946298CA0DA
:104F800058292093F5063093F6064093F706509380
:104F9000F8066093F9067093FA068093FB069093E7
:104FA000FC068091F40683608093F406243060F55B
:104FB0000E94FF1588E090E00E94AD326B017C01F9
:104FC00084E290E00E94A532282F30E040E050E0DB
:104FD00060E070E080E090E00E94E7312601370158
:104FE0002C293529462957292093F5063093F606B2
:104FF0004093F7065093F8066093F9067093FA060B
:105000008093FB069093FC060E94080A0E941D0AEA
:105010008091F50680FF05C060E0869586950E9428
:10502000761B81E0809323048091AC06811102C03D
:105030000E94F32F88E191E09093D1068093D006EF
:105040006AE0462E512C612C712C809177068530B8
:1050500049F480917706853009F459C00E94E8121E
:105060000E942B0A0E946B2437E2E32E34E0F32ED9
:105070004FE6C42E46E0D42ED601F70191918D91D2
:105080002FE2822E24E0922E8E169F0609F494C001
:105090009817A1F38090AC0610E0D6010D916D0138
:1050A000F70191907F01901639F19026B12CAA2436
:1050B000A3948A2D89218115C1F08114B1F0B982A0
:1050C0001A830E943D1B9C838B83F1E0FD8391E05A
:1050D0008A2D8023811101C090E09E8349815A81ED
:1050E0006B817C818D810E94C023B394AA0C26E041
:1050F000B212DFCFF70102931F5F183071F60E94E2
:10510000F40ADD24D3945DC086EE9AE0C2CE80918D
:105110007706843039F10E941D1A1092240458E158
:10512000A52EB12C20E40FB6F894A895A0926000AB
:105130000FBE2093600083B7817F846083BF83B7F5
:10514000816083BF7894889583B78E7F83BF0FB6C5
:10515000F894A89580916000886180936000109217
:1051600060000FBE80912504811509F472CF0E9462
:105170006B24EFE6F6E08191811106C087E796E0A7
:105180008E179F07C1F765CF80E189BD82E189BD98
:1051900009B400FEFDCF8091D8008F7D8093D800A8
:1051A0008091E00082608093E0008091E00081FDCA
:1051B000FCCF0E94E8124DCF98136CCF0E94482478
:1051C000D12C8091F306811509F470C08091F2060C
:1051D000E091F506E695E695E81BE0933404853109
:1051E00009F48DC108F037C1893009F47CC108F099
:1051F00023C1823009F461C1863009F469C100ED30
:1052000017E095E7E92E99E0F92E80913504811594
:1052100061F0109235040E94491B909333048093EF
:10522000320410923704109236040E94491B1C016C
:1052300080913204909133049101281B390B2F3F48
:105240003F47A0F5209131042115B9F010923104A7
:1052500020912F0430913004A101421B530B4F3F8A
:105260005F4758F4205D3A483093300420932F0470
:105270002091F40628602093F406A0903604B090A4
:105280003704800F911F909333048093320482E39C
:1052900094E0F70109958091360490913704892BA9
:1052A00029F4AB2819F081E08093310480916D06D8
:1052B000811509F48AC080916B0690916C060E945A
:1052C000EC1BC29708F461C00E943D1B90936C06D2
:1052D00080936B0682E694E09093390480933804BF
:1052E0008091AC06811509F456C189E79BE00E94C4
:1052F000021B809101070E945606823009F412C1F8
:1053000008F008C181110BC181E79BE00E94101BCE
:105310008091EF06805D0E94531A86E59BE00E9413
:10532000021B8091EE06805D0E94531A82E59BE08D
:105330000E94021B8090EC069090ED068091220165
:10534000909123018816990609F0F2C080914104DA
:10535000803209F0EDC0EBE3F4E08F0181918032FF
:10536000E1F3F80101900020E9F79F012150310994
:1053700079010E151F0508F408C180E59BE00E9425
:10538000021B809154010E94531A809164069091EF
:105390006506892B09F004C180916A068115A9F080
:1053A0000E94E80A0091660610916706209168063F
:1053B00030916906601B710B820B930B6F3F7F4F1F
:1053C0008F4F9F4710F40E941D1AD1100E942F1A70
:1053D0000E942B0A90916E06891721F080936E0629
:1053E0000E94E80A80917706843009F02ECE83E08F
:1053F0008093E9008091E80082FF27CE8091E80049
:1054000090E085FF06C00E94A30B811509F4A2C19C
:1054100091E08091E8008B778093E800911509F482
:1054200014CE8981EFEFE80FE33108F0BDC1F0E061
:10543000E655FC4C0C94CB318F3009F0E0CEE6956C
:10544000F0E0ED5FF44FE4910E2F10E0F3E4EF2E67
:10545000FDE0FF2EDACE04EF11E050EDE52E5EE028
:10546000F52E843209F4D1CEA8F408E210E045E428
:10547000E42E4EE0F42E883109F4C7CE833209F0D1
:10548000BECEEEEFFAE00591159176E3E72E7FE0D0
:10549000F72EBBCE853209F0B2CE8E2F63E00E948C
:1054A0009D31E92FF0E0E550F54FE4910E2F10E02B
:1054B0006BE2E62E69E1F62EA8CEF0E0E45FF44F51
:1054C000E4910E2F10E088E8E82E8FE0F82E9DCEB4
:1054D000F0E0E75FF44FE4910E2F10E0BCE9EB2E13
:1054E000BFE0FB2E92CEE695F0E0EA5FF44FE49148
:1054F0000E2F10E0A8E0EA2EADE0FA2E86CEF0E006
:10550000E050F54FE4910E2F10E0E5ECEE2EEDE0CB
:10551000FE2E7BCE833049F088E59BE0F7CE8BE60C
:105520009BE0F4CE85E69BE0F1CE8EE59BE0EECEEF
:10553000909223018092220180E280934104A12C69
:10554000B12C1092400430E4E32E34E0F32E00E05E
:1055500010E0C501B401A30192010E942F33605DE8
:10556000603341F40115110529F089288A288B2818
:1055700009F460E2D7016E937D0149015A010F5F82
:105580001F4F0530110529F7E6CED8018D918D0109
:105590000E94531AEECE80E19BE00E94021BF5CEE2
:1055A00080916D06811509F4F7CE80916306811113
:1055B000F3CE0E942F1A20916406309165062115C2
:1055C000310509F4E9CE10E041E050E0812F90E090
:1055D0004A01012E02C0880C991C0A94E2F7B90115
:1055E00068217921672B11F41F5FF0CF20916206AB
:1055F00020FF9DC0912F990F990F990F37E0390F18
:1056000080E023E0909326018093290130932701C5
:1056100020932A0124E630E047E050E064E271E0A4
:1056200088E70E943E2F892B09F0B6CEB0E21B9F7F
:10563000A00111248091620680FF85C0E2E4F4E0BD
:1056400080E2DF011D928A95E9F7EDE9F1E0FCA720
:10565000EBA769E971E097E0E92EBB24B394EBA5D1
:10566000FCA5A191FCA7EBA7FB018191BF01840FD1
:10567000952F911D9C012E593B4F3AA729A7EA2F40
:10568000F0E0EE5BFB4F80E090E0CE2CC81AFB2CE4
:10569000082E01C0FF0C0A94EAF7A9A5BAA5BAA37F
:1056A000A9A300E0A9A1BAA11D91BAA3A9A31F2192
:1056B0002C2D201B277030E0B12F022E01C0BB0F14
:1056C0000A94EAF73195219531092770332701C0F3
:1056D00016952A95EAF71B2B2081122B10830F5F5A
:1056E000083001F7019631968830910571F6EBA5E7
:1056F000FCA5E15AF14009F0B2CF04E610E020E247
:1057000030E042E454E060E488E70E94662F892B91
:1057100009F042CE80949094809164069091650641
:1057200088219921909365068093640635CE9695DD
:10573000879596958795282F912F9295990F90761A
:105740003FE1390F5FCF4E595B4F04E610E020E296
:1057500030E0D9CF80E2E82EF12C8E010F5F1F4F91
:105760008091E80085FD0AC08091E8008B778093E6
:10577000E8000E94A30B811599F34ACE8091F100B5
:10578000D8018D938D01B1E0EB1AF10849F740CEB5
:105790001A828CE08B831AC08A81833049F138F4F5
:1057A000813061F08230D9F08FEF89830FC084306F
:1057B000D9F71B821C821D821E8208C00E94E80A43
:1057C0000E94D1316B837C838D839E8340E250E0C5
:1057D000BE016F5F7F4F82E00E94AC0F36CC88E243
:1057E00090E00E94A5321B821C821D828E83EECF28
:1057F0008B8190E0FE013496883091053CF7DC0106
:10580000A159B94F2C9121930196F6CF8A8182300C
:1058100049F0853049F68091F50680FF0EC00E9460
:105820000B0FD4CF6B817C818D819E810E94D13101
:1058300088E290E00E94C932C9CF81608093F5066A
:1058400060E0869586950E94761BC0CF4C816B8167
:105850008A810E94F8109827892798279E838D8334
:10586000B5CF2D813E813227232732274C816B8192
:105870008A810E945C10AACF0E948310A7CF9A81D0
:10588000923009F091CF8830E1F1893009F465C098
:105890008B81833091F1B0F48130E9F0823009F0EE
:1058A00095CF8C81811509F4BACF8091F50681607E
:1058B0008093F50660E0869586950E94761B60E0F1
:1058C0008C81C1CF843009F081CF20E04091F8066F
:1058D0006D818C810FC08C81E2E38E9FC001112409
:1058E0006FEF70E00E945231462F20E06091F70682
:1058F0008091F6060E94501669CF8C818093F9063C
:1059000065CF8B81833031F168F48130A9F082302A
:1059100009F05CCF8091F50680FF1AC086958695C8
:105920008C8354CF843009F051CF8091F6068C835C
:105930008091F7068D834ACF8091F806FFEF8F9F05
:10594000C001112462E370E00E9452316C833ECFAB
:1059500080E0E6CF8091F906E3CF2091F506309103
:10596000F6064091F7065091F8066091F90670919D
:10597000FA068091FB069091FC060E94D91526CF6D
:1059800080E18A8323CF82E08A8387E503CFCA80C0
:10599000DB80DC24CD24DC248C817601E80EF11C34
:1059A0008E010B5F1F4FEC14FD0409F40FCF80E054
:1059B00027E5C21622E0D20628F4C60187559E4F7D
:1059C0000E94A532D8018D938D01BFEFCB1ADB0A5F
:1059D000EACF0A811B81102701271027FE0131968B
:1059E0006F01EC80EE0EFF2EF11CEC14FD0409F4A7
:1059F000EDCE0735F2E01F0740F4D60114966C9106
:105A0000C80187559E4F0E94C9320F5F1F4FBFEFDD
:105A1000CB1ADB0AEACF0E94BC10D8CE84E0B1CF0B
:105A2000CA80DB80DC24CD24DC248C817601E80E66
:105A3000F11C8E010B5F1F4FCE14DF0409F4C6CE9C
:105A400080E0E0E8CE16E1E0DE0620F4C6018996AB
:105A50000E94A532D8018D938D01BFEFCB1ADB0ACE
:105A6000EBCF0A811B81102701271027FE013196F9
:105A70006F01EC80EE0EFF2EF11CEC14FD0409F416
:105A8000A5CE0038F1E01F0738F4D60114966C91CA
:105A9000C80189960E94C9320F5F1F4FBFEFCB1A12
:105AA000DB0AEBCF78941F921FB61F9211248F93BD
:105AB0009F93AF93BF9380918C0690918D06A09198
:105AC0008E06B0918F060196A11DB11D80938C06A4
:105AD00090938D06A0938E06B0938F06BF91AF91E1
